:0300000001fffffe
:0300010001ffd824
:0300020001ff619a
:0300030001fe9c5f
:0300040001fd8873
:0300050001fc25d6
:0300060001fa7488
:0300070001f87588
:0300080001f629d5
:0300090001f38e72
:03000a0001f0a75b
:03000b0001ed7391
:03000c0001e9f314
:03000d0001e628e1
:03000e0001e211fb
:03000f0001ddb060
:0300100001d9060d
:0300110001d41205
:0300120001ced745
:0300130001c954cc
:0300140001c38a9b
:0300150001bd7baf
:0300160001b72708
:0300170001b090a5
:0300180001a9b685
:0300190001a29aa7
:03001a00019b3d0a
:03001b000193a1ad
:03001c00018bc78e
:03001d000183b0ac
:03001e00017b5d06
:03001f000172d09b
:03002000016a0969
:0300210001610b6f
:030022000157d6ad
:03002300014e6c1f
:030024000144cfc5
:03002500013aff9e
:030026000130ffa7
:030027000126d0df
:03002800011c7345
:030029000111ebd7
:03002a0001073893
:03002b0000fc5d79
:03002c0000f15a86
:03002d0000e633b7
:03002e0000dae80d
:03002f0000cf7b84
:0300300000c3ef1b
:0300310000b844d0
:0300320000ac7ca3
:0300330000a09b8f
:030034000094a095
:0300350000888eb2
:03003600007c68e3
:0300370000702e28
:030038000063e37f
:03003900005788e5
:03003a00004b2058
:03003b00003eacd8
:03003c0000322f60
:03003d000025aaf1
:03003e0000191f87
:03003f00000c9121
:03004000000000bd
:0300410003f36f57
:0300420003e6e1f1
:0300430003da5687
:0300440003cdd118
:0300450003c154a0
:0300460003b4e020
:0300470003a87893
:03004800039c1df9
:03004900038fd250
:03004a0003839895
:03004b00037772c6
:03004c00036b60e3
:03004d00035f65e9
:03004e00035384d5
:03004f000347bca8
:03005000033c115d
:03005100033085f4
:030052000325186b
:030053000319cdc1
:03005400030ea6f2
:030055000303a3ff
:0300560002f8c8e5
:0300570002ee15a1
:0300580002e38d33
:0300590002d93099
:03005a0002cf01d1
:03005b0002c501da
:03005c0002bb31b3
:03005d0002b19459
:03005e0002a82acb
:03005f00029ef509
:030060000295f70f
:03006100028d30dd
:030062000284a372
:03006300027c50cc
:03006400027439ea
:03006500026c5fcb
:030066000264c36e
:03006700025d66d1
:0300680002564af3
:03006900024f70d3
:03006a000248d970
:03006b00024285c9
:03006c00023c76dd
:03006d000236acac
:03006e0002312933
:03006f00022bee73
:030070000226fa6b
:0300710002225018
:03007200021def7d
:030073000219d897
:0300740002160d64
:0300750002128de7
:03007600020f591d
:03007700020c7206
:030078000209d7a3
:0300790002078bf0
:03007a0002058cf0
:03007b000203dba2
:03007c0002027805
:03007d0002016419
:03007e0002009fde
:03007f0002002854
:030080000200017a
:0300810002002852
:0300820002009fda
:0300830002016413
:03008400020278fd
:030085000203db98
:0300860002058ce4
:0300870002078be2
:030088000209d793
:03008900020c72f4
:03008a00020f5909
:03008b0002128dd1
:03008c0002160d4c
:03008d000219d87d
:03008e00021def61
:03008f00022250fa
:030090000226fa4b
:03009100022bee51
:030092000231290f
:030093000236ac86
:03009400023c76b5
:030095000242859f
:030096000248d944
:03009700024f70a5
:0300980002564ac3
:03009900025d669f
:03009a000264c33a
:03009b00026c5f95
:03009c00027439b2
:03009d00027c5092
:03009e000284a336
:03009f00028d309f
:0300a0000295f7cf
:0300a100029ef5c7
:0300a20002a82a87
:0300a30002b19413
:0300a40002bb316b
:0300a50002c50190
:0300a60002cf0185
:0300a70002d9304b
:0300a80002e38de3
:0300a90002ee154f
:0300aa0002f8c891
:0300ab000303a3a9
:0300ac00030ea69a
:0300ad000319cd67
:0300ae000325180f
:0300af0003308596
:0300b000033c11fd
:0300b1000347bc46
:0300b20003538471
:0300b300035f6583
:0300b400036b607b
:0300b5000377725c
:0300b60003839829
:0300b700038fd2e2
:0300b800039c1d89
:0300b90003a87821
:0300ba0003b4e0ac
:0300bb0003c1542a
:0300bc0003cdd1a0
:0300bd0003da560d
:0300be0003e6e175
:0300bf0003f36fd9
:0300c0000000003d
:0300c100000c919f
:0300c20000191f03
:0300c3000025aa6b
:0300c40000322fd8
:0300c500003eac4e
:0300c600004b20cc
:0300c70000578857
:0300c8000063e3ef
:0300c90000702e96
:0300ca00007c684f
:0300cb0000888e1c
:0300cc000094a0fd
:0300cd0000a09bf5
:0300ce0000ac7c07
:0300cf0000b84432
:0300d00000c3ef7b
:0300d10000cf7be2
:0300d20000dae869
:0300d30000e63311
:0300d40000f15ade
:0300d50000fc5dcf
:0300d600010738e7
:0300d7000111eb29
:0300d800011c7395
:0300d9000126d02d
:0300da000130fff3
:0300db00013affe8
:0300dc000144cf0d
:0300dd00014e6c65
:0300de000157d6f1
:0300df0001610bb1
:0300e000016a09a9
:0300e1000172d0d9
:0300e200017b5d42
:0300e3000183b0e6
:0300e400018bc7c6
:0300e5000193a1e3
:0300e600019b3d3e
:0300e70001a29ad9
:0300e80001a9b6b5
:0300e90001b090d3
:0300ea0001b72734
:0300eb0001bd7bd9
:0300ec0001c38ac3
:0300ed0001c954f2
:0300ee0001ced769
:0300ef0001d41227
:0300f00001d9062d
:0300f10001ddb07e
:0300f20001e21117
:0300f30001e628fb
:0300f40001e9f32c
:0300f50001ed73a7
:0300f60001f0a76f
:0300f70001f38e84
:0300f80001f629e5
:0300f90001f87596
:0300fa0001fa7494
:0300fb0001fc25e0
:0300fc0001fd887b
:0300fd0001fe9c65
:0300fe0001ff619e
:0300ff0001ffd826
:00000001FF
