:020000000000fe
:020001000001fc
:020002000002fa
:020003000002f9
:020004000003f7
:020005000004f5
:020006000005f3
:020007000005f2
:020008000006f0
:020009000007ee
:02000a000008ec
:02000b000009ea
:02000c000009e9
:02000d00000ae7
:02000e00000be5
:02000f00000ce3
:02001000000de1
:02001100000de0
:02001200000ede
:02001300000fdc
:020014000010da
:020015000010d9
:020016000011d7
:020017000012d5
:020018000013d3
:020019000014d1
:02001a000014d0
:02001b000015ce
:02001c000016cc
:02001d000017ca
:02001e000018c8
:02001f000018c7
:020020000019c5
:02002100001ac3
:02002200001bc1
:02002300001bc0
:02002400001cbe
:02002500001dbc
:02002600001eba
:02002700001fb8
:02002800001fb7
:020029000020b5
:02002a000021b3
:02002b000022b1
:02002c000023af
:02002d000023ae
:02002e000024ac
:02002f000025aa
:020030000026a8
:020031000026a7
:020032000027a5
:020033000028a3
:020034000029a1
:02003500002a9f
:02003600002a9e
:02003700002b9c
:02003800002c9a
:02003900002d98
:02003a00002e96
:02003b00002e95
:02003c00002f93
:02003d00003091
:02003e0000318f
:02003f0000318e
:0200400000328c
:0200410000338a
:02004200003488
:02004300003586
:02004400003585
:02004500003683
:02004600003781
:0200470000387f
:0200480000397d
:0200490000397c
:02004a00003a7a
:02004b00003b78
:02004c00003c76
:02004d00003c75
:02004e00003d73
:02004f00003e71
:02005000003f6f
:0200510000406d
:0200520000406c
:0200530000416a
:02005400004268
:02005500004366
:02005600004464
:02005700004463
:02005800004561
:0200590000465f
:02005a0000475d
:02005b0000475c
:02005c0000485a
:02005d00004958
:02005e00004a56
:02005f00004b54
:02006000004b53
:02006100004c51
:02006200004d4f
:02006300004e4d
:02006400004f4b
:02006500004f4a
:02006600005048
:02006700005146
:02006800005244
:02006900005243
:02006a00005341
:02006b0000543f
:02006c0000553d
:02006d0000563b
:02006e0000563a
:02006f00005738
:02007000005836
:02007100005934
:02007200005a32
:02007300005a31
:02007400005b2f
:02007500005c2d
:02007600005d2b
:02007700005d2a
:02007800005e28
:02007900005f26
:02007a00006024
:02007b00006122
:02007c00006121
:02007d0000621f
:02007e0000631d
:02007f0000641b
:02008000006519
:02008100006518
:02008200006616
:02008300006714
:02008400006812
:02008500006811
:0200860000690f
:02008700006a0d
:02008800006b0b
:02008900006c09
:02008a00006c08
:02008b00006d06
:02008c00006e04
:02008d00006f02
:02008e00007000
:02008f000070ff
:020090000071fd
:020091000072fb
:020092000073f9
:020093000073f8
:020094000074f6
:020095000075f4
:020096000076f2
:020097000077f0
:020098000077ef
:020099000078ed
:02009a000079eb
:02009b00007ae9
:02009c00007be7
:02009d00007be6
:02009e00007ce4
:02009f00007de2
:0200a000007ee0
:0200a100007edf
:0200a200007fdd
:0200a3000080db
:0200a4000081d9
:0200a5000082d7
:0200a6000082d6
:0200a7000083d4
:0200a8000084d2
:0200a9000085d0
:0200aa000085cf
:0200ab000086cd
:0200ac000087cb
:0200ad000088c9
:0200ae000089c7
:0200af000089c6
:0200b000008ac4
:0200b100008bc2
:0200b200008cc0
:0200b300008dbe
:0200b400008dbd
:0200b500008ebb
:0200b600008fb9
:0200b7000090b7
:0200b8000090b6
:0200b9000091b4
:0200ba000092b2
:0200bb000093b0
:0200bc000094ae
:0200bd000094ad
:0200be000095ab
:0200bf000096a9
:0200c0000097a7
:0200c1000098a5
:0200c2000098a4
:0200c3000099a2
:0200c400009aa0
:0200c500009b9e
:0200c600009b9d
:0200c700009c9b
:0200c800009d99
:0200c900009e97
:0200ca00009f95
:0200cb00009f94
:0200cc0000a092
:0200cd0000a190
:0200ce0000a28e
:0200cf0000a38c
:0200d00000a38b
:0200d10000a489
:0200d20000a587
:0200d30000a685
:0200d40000a684
:0200d50000a782
:0200d60000a880
:0200d70000a97e
:0200d80000aa7c
:0200d90000aa7b
:0200da0000ab79
:0200db0000ac77
:0200dc0000ad75
:0200dd0000ae73
:0200de0000ae72
:0200df0000af70
:0200e00000b06e
:0200e10000b16c
:0200e20000b16b
:0200e30000b269
:0200e40000b367
:0200e50000b465
:0200e60000b563
:0200e70000b562
:0200e80000b660
:0200e90000b75e
:0200ea0000b85c
:0200eb0000b95a
:0200ec0000b959
:0200ed0000ba57
:0200ee0000bb55
:0200ef0000bc53
:0200f00000bc52
:0200f10000bd50
:0200f20000be4e
:0200f30000bf4c
:0200f40000c04a
:0200f50000c049
:0200f60000c147
:0200f70000c245
:0200f80000c343
:0200f90000c441
:0200fa0000c440
:0200fb0000c53e
:0200fc0000c63c
:0200fd0000c73a
:0200fe0000c739
:0200ff0000c837
:0201000000c934
:0201010000ca32
:0201020000cb30
:0201030000cb2f
:0201040000cc2d
:0201050000cd2b
:0201060000ce29
:0201070000cf27
:0201080000cf26
:0201090000d024
:02010a0000d122
:02010b0000d220
:02010c0000d21f
:02010d0000d31d
:02010e0000d41b
:02010f0000d519
:0201100000d617
:0201110000d616
:0201120000d714
:0201130000d812
:0201140000d910
:0201150000da0e
:0201160000da0d
:0201170000db0b
:0201180000dc09
:0201190000dd07
:02011a0000dd06
:02011b0000de04
:02011c0000df02
:02011d0000e000
:02011e0000e1fe
:02011f0000e1fd
:0201200000e2fb
:0201210000e3f9
:0201220000e4f7
:0201230000e4f6
:0201240000e5f4
:0201250000e6f2
:0201260000e7f0
:0201270000e8ee
:0201280000e8ed
:0201290000e9eb
:02012a0000eae9
:02012b0000ebe7
:02012c0000ece5
:02012d0000ece4
:02012e0000ede2
:02012f0000eee0
:0201300000efde
:0201310000efdd
:0201320000f0db
:0201330000f1d9
:0201340000f2d7
:0201350000f3d5
:0201360000f3d4
:0201370000f4d2
:0201380000f5d0
:0201390000f6ce
:02013a0000f7cc
:02013b0000f7cb
:02013c0000f8c9
:02013d0000f9c7
:02013e0000fac5
:02013f0000fac4
:0201400000fbc2
:0201410000fcc0
:0201420000fdbe
:0201430000febc
:0201440000febb
:0201450000ffb9
:020146000100b6
:020147000101b4
:020148000102b2
:020149000102b1
:02014a000103af
:02014b000104ad
:02014c000105ab
:02014d000105aa
:02014e000106a8
:02014f000107a6
:020150000108a4
:020151000109a2
:020152000109a1
:02015300010a9f
:02015400010b9d
:02015500010c9b
:02015600010d99
:02015700010d98
:02015800010e96
:02015900010f94
:02015a00011092
:02015b00011091
:02015c0001118f
:02015d0001128d
:02015e0001138b
:02015f00011489
:02016000011488
:02016100011586
:02016200011684
:02016300011782
:02016400011880
:0201650001187f
:0201660001197d
:02016700011a7b
:02016800011b79
:02016900011b78
:02016a00011c76
:02016b00011d74
:02016c00011e72
:02016d00011f70
:02016e00011f6f
:02016f0001206d
:0201700001216b
:02017100012269
:02017200012367
:02017300012366
:02017400012464
:02017500012562
:02017600012660
:0201770001265f
:0201780001275d
:0201790001285b
:02017a00012959
:02017b00012a57
:02017c00012a56
:02017d00012b54
:02017e00012c52
:02017f00012d50
:02018000012d4f
:02018100012e4d
:02018200012f4b
:02018300013049
:02018400013147
:02018500013146
:02018600013244
:02018700013342
:02018800013440
:0201890001353e
:02018a0001353d
:02018b0001363b
:02018c00013739
:02018d00013837
:02018e00013836
:02018f00013934
:02019000013a32
:02019100013b30
:02019200013c2e
:02019300013c2d
:02019400013d2b
:02019500013e29
:02019600013f27
:02019700014025
:02019800014024
:02019900014122
:02019a00014220
:02019b0001431e
:02019c0001431d
:02019d0001441b
:02019e00014519
:02019f00014617
:0201a000014715
:0201a100014714
:0201a200014812
:0201a300014910
:0201a400014a0e
:0201a500014b0c
:0201a600014b0b
:0201a700014c09
:0201a800014d07
:0201a900014e05
:0201aa00014e04
:0201ab00014f02
:0201ac00015000
:0201ad000151fe
:0201ae000152fc
:0201af000152fb
:0201b0000153f9
:0201b1000154f7
:0201b2000155f5
:0201b3000156f3
:0201b4000156f2
:0201b5000157f0
:0201b6000158ee
:0201b7000159ec
:0201b8000159eb
:0201b900015ae9
:0201ba00015be7
:0201bb00015ce5
:0201bc00015de3
:0201bd00015de2
:0201be00015ee0
:0201bf00015fde
:0201c0000160dc
:0201c1000160db
:0201c2000161d9
:0201c3000162d7
:0201c4000163d5
:0201c5000164d3
:0201c6000164d2
:0201c7000165d0
:0201c8000166ce
:0201c9000167cc
:0201ca000168ca
:0201cb000168c9
:0201cc000169c7
:0201cd00016ac5
:0201ce00016bc3
:0201cf00016bc2
:0201d000016cc0
:0201d100016dbe
:0201d200016ebc
:0201d300016fba
:0201d400016fb9
:0201d5000170b7
:0201d6000171b5
:0201d7000172b3
:0201d8000173b1
:0201d9000173b0
:0201da000174ae
:0201db000175ac
:0201dc000176aa
:0201dd000176a9
:0201de000177a7
:0201df000178a5
:0201e0000179a3
:0201e100017aa1
:0201e200017aa0
:0201e300017b9e
:0201e400017c9c
:0201e500017d9a
:0201e600017e98
:0201e700017e97
:0201e800017f95
:0201e900018093
:0201ea00018191
:0201eb00018190
:0201ec0001828e
:0201ed0001838c
:0201ee0001848a
:0201ef00018588
:0201f000018587
:0201f100018685
:0201f200018783
:0201f300018881
:0201f40001897f
:0201f50001897e
:0201f600018a7c
:0201f700018b7a
:0201f800018c78
:0201f900018c77
:0201fa00018d75
:0201fb00018e73
:0201fc00018f71
:0201fd0001906f
:0201fe0001906e
:0201ff0001916c
:02020000019269
:02020100019367
:02020200019366
:02020300019464
:02020400019562
:02020500019660
:0202060001975e
:0202070001975d
:0202080001985b
:02020900019959
:02020a00019a57
:02020b00019b55
:02020c00019b54
:02020d00019c52
:02020e00019d50
:02020f00019e4e
:02021000019e4d
:02021100019f4b
:0202120001a049
:0202130001a147
:0202140001a245
:0202150001a244
:0202160001a342
:0202170001a440
:0202180001a53e
:0202190001a63c
:02021a0001a63b
:02021b0001a739
:02021c0001a837
:02021d0001a935
:02021e0001a934
:02021f0001aa32
:0202200001ab30
:0202210001ac2e
:0202220001ad2c
:0202230001ad2b
:0202240001ae29
:0202250001af27
:0202260001b025
:0202270001b123
:0202280001b122
:0202290001b220
:02022a0001b31e
:02022b0001b41c
:02022c0001b41b
:02022d0001b519
:02022e0001b617
:02022f0001b715
:0202300001b813
:0202310001b812
:0202320001b910
:0202330001ba0e
:0202340001bb0c
:0202350001bb0b
:0202360001bc09
:0202370001bd07
:0202380001be05
:0202390001bf03
:02023a0001bf02
:02023b0001c000
:02023c0001c1fe
:02023d0001c2fc
:02023e0001c3fa
:02023f0001c3f9
:0202400001c4f7
:0202410001c5f5
:0202420001c6f3
:0202430001c6f2
:0202440001c7f0
:0202450001c8ee
:0202460001c9ec
:0202470001caea
:0202480001cae9
:0202490001cbe7
:02024a0001cce5
:02024b0001cde3
:02024c0001cee1
:02024d0001cee0
:02024e0001cfde
:02024f0001d0dc
:0202500001d1da
:0202510001d1d9
:0202520001d2d7
:0202530001d3d5
:0202540001d4d3
:0202550001d5d1
:0202560001d5d0
:0202570001d6ce
:0202580001d7cc
:0202590001d8ca
:02025a0001d8c9
:02025b0001d9c7
:02025c0001dac5
:02025d0001dbc3
:02025e0001dcc1
:02025f0001dcc0
:0202600001ddbe
:0202610001debc
:0202620001dfba
:0202630001e0b8
:0202640001e0b7
:0202650001e1b5
:0202660001e2b3
:0202670001e3b1
:0202680001e3b0
:0202690001e4ae
:02026a0001e5ac
:02026b0001e6aa
:02026c0001e7a8
:02026d0001e7a7
:02026e0001e8a5
:02026f0001e9a3
:0202700001eaa1
:0202710001eb9f
:0202720001eb9e
:0202730001ec9c
:0202740001ed9a
:0202750001ee98
:0202760001ee97
:0202770001ef95
:0202780001f093
:0202790001f191
:02027a0001f28f
:02027b0001f28e
:02027c0001f38c
:02027d0001f48a
:02027e0001f588
:02027f0001f587
:0202800001f685
:0202810001f783
:0202820001f881
:0202830001f97f
:0202840001f97e
:0202850001fa7c
:0202860001fb7a
:0202870001fc78
:0202880001fd76
:0202890001fd75
:02028a0001fe73
:02028b0001ff71
:02028c0002006e
:02028d0002006d
:02028e0002016b
:02028f00020269
:02029000020367
:02029100020465
:02029200020464
:02029300020562
:02029400020660
:0202950002075e
:0202960002085c
:0202970002085b
:02029800020959
:02029900020a57
:02029a00020b55
:02029b00020b54
:02029c00020c52
:02029d00020d50
:02029e00020e4e
:02029f00020f4c
:0202a000020f4b
:0202a100021049
:0202a200021147
:0202a300021245
:0202a400021244
:0202a500021342
:0202a600021440
:0202a70002153e
:0202a80002163c
:0202a90002163b
:0202aa00021739
:0202ab00021837
:0202ac00021935
:0202ad00021a33
:0202ae00021a32
:0202af00021b30
:0202b000021c2e
:0202b100021d2c
:0202b200021d2b
:0202b300021e29
:0202b400021f27
:0202b500022025
:0202b600022123
:0202b700022122
:0202b800022220
:0202b90002231e
:0202ba0002241c
:0202bb0002251a
:0202bc00022519
:0202bd00022617
:0202be00022715
:0202bf00022813
:0202c000022812
:0202c100022910
:0202c200022a0e
:0202c300022b0c
:0202c400022c0a
:0202c500022c09
:0202c600022d07
:0202c700022e05
:0202c800022f03
:0202c900022f02
:0202ca00023000
:0202cb000231fe
:0202cc000232fc
:0202cd000233fa
:0202ce000233f9
:0202cf000234f7
:0202d0000235f5
:0202d1000236f3
:0202d2000237f1
:0202d3000237f0
:0202d4000238ee
:0202d5000239ec
:0202d600023aea
:0202d700023ae9
:0202d800023be7
:0202d900023ce5
:0202da00023de3
:0202db00023ee1
:0202dc00023ee0
:0202dd00023fde
:0202de000240dc
:0202df000241da
:0202e0000242d8
:0202e1000242d7
:0202e2000243d5
:0202e3000244d3
:0202e4000245d1
:0202e5000245d0
:0202e6000246ce
:0202e7000247cc
:0202e8000248ca
:0202e9000249c8
:0202ea000249c7
:0202eb00024ac5
:0202ec00024bc3
:0202ed00024cc1
:0202ee00024cc0
:0202ef00024dbe
:0202f000024ebc
:0202f100024fba
:0202f2000250b8
:0202f3000250b7
:0202f4000251b5
:0202f5000252b3
:0202f6000253b1
:0202f7000254af
:0202f8000254ae
:0202f9000255ac
:0202fa000256aa
:0202fb000257a8
:0202fc000257a7
:0202fd000258a5
:0202fe000259a3
:0202ff00025aa1
:02030000025b9e
:02030100025b9d
:02030200025c9b
:02030300025d99
:02030400025e97
:02030500025e96
:02030600025f94
:02030700026092
:02030800026190
:0203090002628e
:02030a0002628d
:02030b0002638b
:02030c00026489
:02030d00026587
:02030e00026685
:02030f00026684
:02031000026782
:02031100026880
:0203120002697e
:0203130002697d
:02031400026a7b
:02031500026b79
:02031600026c77
:02031700026d75
:02031800026d74
:02031900026e72
:02031a00026f70
:02031b0002706e
:02031c0002706d
:02031d0002716b
:02031e00027269
:02031f00027367
:02032000027465
:02032100027464
:02032200027562
:02032300027660
:0203240002775e
:0203250002785c
:0203260002785b
:02032700027959
:02032800027a57
:02032900027b55
:02032a00027b54
:02032b00027c52
:02032c00027d50
:02032d00027e4e
:02032e00027f4c
:02032f00027f4b
:02033000028049
:02033100028147
:02033200028245
:02033300028343
:02033400028342
:02033500028440
:0203360002853e
:0203370002863c
:0203380002863b
:02033900028739
:02033a00028837
:02033b00028935
:02033c00028a33
:02033d00028a32
:02033e00028b30
:02033f00028c2e
:02034000028d2c
:02034100028d2b
:02034200028e29
:02034300028f27
:02034400029025
:02034500029123
:02034600029122
:02034700029220
:0203480002931e
:0203490002941c
:02034a0002951a
:02034b00029519
:02034c00029617
:02034d00029715
:02034e00029813
:02034f00029812
:02035000029910
:02035100029a0e
:02035200029b0c
:02035300029c0a
:02035400029c09
:02035500029d07
:02035600029e05
:02035700029f03
:02035800029f02
:0203590002a000
:02035a0002a1fe
:02035b0002a2fc
:02035c0002a3fa
:02035d0002a3f9
:02035e0002a4f7
:02035f0002a5f5
:0203600002a6f3
:0203610002a7f1
:0203620002a7f0
:0203630002a8ee
:0203640002a9ec
:0203650002aaea
:0203660002aae9
:0203670002abe7
:0203680002ace5
:0203690002ade3
:02036a0002aee1
:02036b0002aee0
:02036c0002afde
:02036d0002b0dc
:02036e0002b1da
:02036f0002b1d9
:0203700002b2d7
:0203710002b3d5
:0203720002b4d3
:0203730002b5d1
:0203740002b5d0
:0203750002b6ce
:0203760002b7cc
:0203770002b8ca
:0203780002b9c8
:0203790002b9c7
:02037a0002bac5
:02037b0002bbc3
:02037c0002bcc1
:02037d0002bcc0
:02037e0002bdbe
:02037f0002bebc
:0203800002bfba
:0203810002c0b8
:0203820002c0b7
:0203830002c1b5
:0203840002c2b3
:0203850002c3b1
:0203860002c3b0
:0203870002c4ae
:0203880002c5ac
:0203890002c6aa
:02038a0002c7a8
:02038b0002c7a7
:02038c0002c8a5
:02038d0002c9a3
:02038e0002caa1
:02038f0002cb9f
:0203900002cb9e
:0203910002cc9c
:0203920002cd9a
:0203930002ce98
:0203940002ce97
:0203950002cf95
:0203960002d093
:0203970002d191
:0203980002d28f
:0203990002d28e
:02039a0002d38c
:02039b0002d48a
:02039c0002d588
:02039d0002d587
:02039e0002d685
:02039f0002d783
:0203a00002d881
:0203a10002d97f
:0203a20002d97e
:0203a30002da7c
:0203a40002db7a
:0203a50002dc78
:0203a60002dc77
:0203a70002dd75
:0203a80002de73
:0203a90002df71
:0203aa0002e06f
:0203ab0002e06e
:0203ac0002e16c
:0203ad0002e26a
:0203ae0002e368
:0203af0002e466
:0203b00002e465
:0203b10002e563
:0203b20002e661
:0203b30002e75f
:0203b40002e75e
:0203b50002e85c
:0203b60002e95a
:0203b70002ea58
:0203b80002eb56
:0203b90002eb55
:0203ba0002ec53
:0203bb0002ed51
:0203bc0002ee4f
:0203bd0002ee4e
:0203be0002ef4c
:0203bf0002f04a
:0203c00002f148
:0203c10002f246
:0203c20002f245
:0203c30002f343
:0203c40002f441
:0203c50002f53f
:0203c60002f63d
:0203c70002f63c
:0203c80002f73a
:0203c90002f838
:0203ca0002f936
:0203cb0002f935
:0203cc0002fa33
:0203cd0002fb31
:0203ce0002fc2f
:0203cf0002fd2d
:0203d00002fd2c
:0203d10002fe2a
:0203d20002ff28
:0203d300030025
:0203d400030024
:0203d500030122
:0203d600030220
:0203d70003031e
:0203d80003041c
:0203d90003041b
:0203da00030519
:0203db00030617
:0203dc00030715
:0203dd00030813
:0203de00030812
:0203df00030910
:0203e000030a0e
:0203e100030b0c
:0203e200030b0b
:0203e300030c09
:0203e400030d07
:0203e500030e05
:0203e600030f03
:0203e700030f02
:0203e800031000
:0203e9000311fe
:0203ea000312fc
:0203eb000312fb
:0203ec000313f9
:0203ed000314f7
:0203ee000315f5
:0203ef000316f3
:0203f0000316f2
:0203f1000317f0
:0203f2000318ee
:0203f3000319ec
:0203f4000319eb
:0203f500031ae9
:0203f600031be7
:0203f700031ce5
:0203f800031de3
:0203f900031de2
:0203fa00031ee0
:0203fb00031fde
:0203fc000320dc
:0203fd000321da
:0203fe000321d9
:0203ff000322d7
:020400000323d4
:020401000324d2
:020402000324d1
:020403000325cf
:020404000326cd
:020405000327cb
:020406000328c9
:020407000328c8
:020408000329c6
:02040900032ac4
:02040a00032bc2
:02040b00032bc1
:02040c00032cbf
:02040d00032dbd
:02040e00032ebb
:02040f00032fb9
:02041000032fb8
:020411000330b6
:020412000331b4
:020413000332b2
:020414000332b1
:020415000333af
:020416000334ad
:020417000335ab
:020418000336a9
:020419000336a8
:02041a000337a6
:02041b000338a4
:02041c000339a2
:02041d00033aa0
:02041e00033a9f
:02041f00033b9d
:02042000033c9b
:02042100033d99
:02042200033d98
:02042300033e96
:02042400033f94
:02042500034092
:02042600034190
:0204270003418f
:0204280003428d
:0204290003438b
:02042a00034489
:02042b00034488
:02042c00034586
:02042d00034684
:02042e00034782
:02042f00034880
:0204300003487f
:0204310003497d
:02043200034a7b
:02043300034b79
:02043400034b78
:02043500034c76
:02043600034d74
:02043700034e72
:02043800034f70
:02043900034f6f
:02043a0003506d
:02043b0003516b
:02043c00035269
:02043d00035367
:02043e00035366
:02043f00035464
:02044000035562
:02044100035660
:0204420003565f
:0204430003575d
:0204440003585b
:02044500035959
:02044600035a57
:02044700035a56
:02044800035b54
:02044900035c52
:02044a00035d50
:02044b00035d4f
:02044c00035e4d
:02044d00035f4b
:02044e00036049
:02044f00036147
:02045000036146
:02045100036244
:02045200036342
:02045300036440
:0204540003643f
:0204550003653d
:0204560003663b
:02045700036739
:02045800036837
:02045900036836
:02045a00036934
:02045b00036a32
:02045c00036b30
:02045d00036c2e
:02045e00036c2d
:02045f00036d2b
:02046000036e29
:02046100036f27
:02046200036f26
:02046300037024
:02046400037122
:02046500037220
:0204660003731e
:0204670003731d
:0204680003741b
:02046900037519
:02046a00037617
:02046b00037616
:02046c00037714
:02046d00037812
:02046e00037910
:02046f00037a0e
:02047000037a0d
:02047100037b0b
:02047200037c09
:02047300037d07
:02047400037d06
:02047500037e04
:02047600037f02
:02047700038000
:020478000381fe
:020479000381fd
:02047a000382fb
:02047b000383f9
:02047c000384f7
:02047d000384f6
:02047e000385f4
:02047f000386f2
:020480000387f0
:020481000388ee
:020482000388ed
:020483000389eb
:02048400038ae9
:02048500038be7
:02048600038ce5
:02048700038ce4
:02048800038de2
:02048900038ee0
:02048a00038fde
:02048b00038fdd
:02048c000390db
:02048d000391d9
:02048e000392d7
:02048f000393d5
:020490000393d4
:020491000394d2
:020492000395d0
:020493000396ce
:020494000396cd
:020495000397cb
:020496000398c9
:020497000399c7
:02049800039ac5
:02049900039ac4
:02049a00039bc2
:02049b00039cc0
:02049c00039dbe
:02049d00039dbd
:02049e00039ebb
:02049f00039fb9
:0204a00003a0b7
:0204a10003a1b5
:0204a20003a1b4
:0204a30003a2b2
:0204a40003a3b0
:0204a50003a4ae
:0204a60003a4ad
:0204a70003a5ab
:0204a80003a6a9
:0204a90003a7a7
:0204aa0003a8a5
:0204ab0003a8a4
:0204ac0003a9a2
:0204ad0003aaa0
:0204ae0003ab9e
:0204af0003ac9c
:0204b00003ac9b
:0204b10003ad99
:0204b20003ae97
:0204b30003af95
:0204b40003af94
:0204b50003b092
:0204b60003b190
:0204b70003b28e
:0204b80003b38c
:0204b90003b38b
:0204ba0003b489
:0204bb0003b587
:0204bc0003b685
:0204bd0003b684
:0204be0003b782
:0204bf0003b880
:0204c00003b97e
:0204c10003ba7c
:0204c20003ba7b
:0204c30003bb79
:0204c40003bc77
:0204c50003bd75
:0204c60003bd74
:0204c70003be72
:0204c80003bf70
:0204c90003c06e
:0204ca0003c16c
:0204cb0003c16b
:0204cc0003c269
:0204cd0003c367
:0204ce0003c465
:0204cf0003c464
:0204d00003c562
:0204d10003c660
:0204d20003c75e
:0204d30003c85c
:0204d40003c85b
:0204d50003c959
:0204d60003ca57
:0204d70003cb55
:0204d80003cb54
:0204d90003cc52
:0204da0003cd50
:0204db0003ce4e
:0204dc0003cf4c
:0204dd0003cf4b
:0204de0003d049
:0204df0003d147
:0204e00003d245
:0204e10003d343
:0204e20003d342
:0204e30003d440
:0204e40003d53e
:0204e50003d63c
:0204e60003d63b
:0204e70003d739
:0204e80003d837
:0204e90003d935
:0204ea0003da33
:0204eb0003da32
:0204ec0003db30
:0204ed0003dc2e
:0204ee0003dd2c
:0204ef0003dd2b
:0204f00003de29
:0204f10003df27
:0204f20003e025
:0204f30003e123
:0204f40003e122
:0204f50003e220
:0204f60003e31e
:0204f70003e41c
:0204f80003e41b
:0204f90003e519
:0204fa0003e617
:0204fb0003e715
:0204fc0003e813
:0204fd0003e812
:0204fe0003e910
:0204ff0003ea0e
:0205000003eb0b
:0205010003eb0a
:0205020003ec08
:0205030003ed06
:0205040003ee04
:0205050003ef02
:0205060003ef01
:0205070003f0ff
:0205080003f1fd
:0205090003f2fb
:02050a0003f2fa
:02050b0003f3f8
:02050c0003f4f6
:02050d0003f5f4
:02050e0003f6f2
:02050f0003f6f1
:0205100003f7ef
:0205110003f8ed
:0205120003f9eb
:0205130003f9ea
:0205140003fae8
:0205150003fbe6
:0205160003fce4
:0205170003fde2
:0205180003fde1
:0205190003fedf
:02051a0003ffdd
:02051b000400da
:02051c000400d9
:02051d000401d7
:02051e000402d5
:02051f000403d3
:020520000404d1
:020521000404d0
:020522000405ce
:020523000406cc
:020524000407ca
:020525000407c9
:020526000408c7
:020527000409c5
:02052800040ac3
:02052900040bc1
:02052a00040bc0
:02052b00040cbe
:02052c00040dbc
:02052d00040eba
:02052e00040fb8
:02052f00040fb7
:020530000410b5
:020531000411b3
:020532000412b1
:020533000412b0
:020534000413ae
:020535000414ac
:020536000415aa
:020537000416a8
:020538000416a7
:020539000417a5
:02053a000418a3
:02053b000419a1
:02053c000419a0
:02053d00041a9e
:02053e00041b9c
:02053f00041c9a
:02054000041d98
:02054100041d97
:02054200041e95
:02054300041f93
:02054400042091
:02054500042090
:0205460004218e
:0205470004228c
:0205480004238a
:02054900042488
:02054a00042487
:02054b00042585
:02054c00042683
:02054d00042781
:02054e00042780
:02054f0004287e
:0205500004297c
:02055100042a7a
:02055200042b78
:02055300042b77
:02055400042c75
:02055500042d73
:02055600042e71
:02055700042e70
:02055800042f6e
:0205590004306c
:02055a0004316a
:02055b00043268
:02055c00043267
:02055d00043365
:02055e00043463
:02055f00043561
:02056000043560
:0205610004365e
:0205620004375c
:0205630004385a
:02056400043958
:02056500043957
:02056600043a55
:02056700043b53
:02056800043c51
:02056900043c50
:02056a00043d4e
:02056b00043e4c
:02056c00043f4a
:02056d00044048
:02056e00044047
:02056f00044145
:02057000044243
:02057100044341
:02057200044340
:0205730004443e
:0205740004453c
:0205750004463a
:02057600044738
:02057700044737
:02057800044835
:02057900044933
:02057a00044a31
:02057b00044a30
:02057c00044b2e
:02057d00044c2c
:02057e00044d2a
:02057f00044e28
:02058000044e27
:02058100044f25
:02058200045023
:02058300045121
:02058400045120
:0205850004521e
:0205860004531c
:0205870004541a
:02058800045518
:02058900045517
:02058a00045615
:02058b00045713
:02058c00045811
:02058d00045810
:02058e0004590e
:02058f00045a0c
:02059000045b0a
:02059100045c08
:02059200045c07
:02059300045d05
:02059400045e03
:02059500045f01
:02059600045f00
:020597000460fe
:020598000461fc
:020599000462fa
:02059a000463f8
:02059b000463f7
:02059c000464f5
:02059d000465f3
:02059e000466f1
:02059f000466f0
:0205a0000467ee
:0205a1000468ec
:0205a2000469ea
:0205a300046ae8
:0205a400046ae7
:0205a500046be5
:0205a600046ce3
:0205a700046de1
:0205a800046de0
:0205a900046ede
:0205aa00046fdc
:0205ab000470da
:0205ac000471d8
:0205ad000471d7
:0205ae000472d5
:0205af000473d3
:0205b0000474d1
:0205b1000474d0
:0205b2000475ce
:0205b3000476cc
:0205b4000477ca
:0205b5000478c8
:0205b6000478c7
:0205b7000479c5
:0205b800047ac3
:0205b900047bc1
:0205ba00047bc0
:0205bb00047cbe
:0205bc00047dbc
:0205bd00047eba
:0205be00047fb8
:0205bf00047fb7
:0205c0000480b5
:0205c1000481b3
:0205c2000482b1
:0205c3000482b0
:0205c4000483ae
:0205c5000484ac
:0205c6000485aa
:0205c7000486a8
:0205c8000486a7
:0205c9000487a5
:0205ca000488a3
:0205cb000489a1
:0205cc000489a0
:0205cd00048a9e
:0205ce00048b9c
:0205cf00048c9a
:0205d000048d98
:0205d100048d97
:0205d200048e95
:0205d300048f93
:0205d400049091
:0205d500049090
:0205d60004918e
:0205d70004928c
:0205d80004938a
:0205d900049488
:0205da00049487
:0205db00049585
:0205dc00049683
:0205dd00049781
:0205de00049780
:0205df0004987e
:0205e00004997c
:0205e100049a7a
:0205e200049b78
:0205e300049b77
:0205e400049c75
:0205e500049d73
:0205e600049e71
:0205e700049e70
:0205e800049f6e
:0205e90004a06c
:0205ea0004a16a
:0205eb0004a268
:0205ec0004a267
:0205ed0004a365
:0205ee0004a463
:0205ef0004a561
:0205f00004a560
:0205f10004a65e
:0205f20004a75c
:0205f30004a85a
:0205f40004a958
:0205f50004a957
:0205f60004aa55
:0205f70004ab53
:0205f80004ac51
:0205f90004ac50
:0205fa0004ad4e
:0205fb0004ae4c
:0205fc0004af4a
:0205fd0004b048
:0205fe0004b047
:0205ff0004b145
:0206000004b242
:0206010004b340
:0206020004b33f
:0206030004b43d
:0206040004b53b
:0206050004b639
:0206060004b737
:0206070004b736
:0206080004b834
:0206090004b932
:02060a0004ba30
:02060b0004ba2f
:02060c0004bb2d
:02060d0004bc2b
:02060e0004bd29
:02060f0004be27
:0206100004be26
:0206110004bf24
:0206120004c022
:0206130004c120
:0206140004c11f
:0206150004c21d
:0206160004c31b
:0206170004c419
:0206180004c517
:0206190004c516
:02061a0004c614
:02061b0004c712
:02061c0004c810
:02061d0004c80f
:02061e0004c90d
:02061f0004ca0b
:0206200004cb09
:0206210004cb08
:0206220004cc06
:0206230004cd04
:0206240004ce02
:0206250004cf00
:0206260004cfff
:0206270004d0fd
:0206280004d1fb
:0206290004d2f9
:02062a0004d2f8
:02062b0004d3f6
:02062c0004d4f4
:02062d0004d5f2
:02062e0004d6f0
:02062f0004d6ef
:0206300004d7ed
:0206310004d8eb
:0206320004d9e9
:0206330004d9e8
:0206340004dae6
:0206350004dbe4
:0206360004dce2
:0206370004dde0
:0206380004dddf
:0206390004dedd
:02063a0004dfdb
:02063b0004e0d9
:02063c0004e0d8
:02063d0004e1d6
:02063e0004e2d4
:02063f0004e3d2
:0206400004e4d0
:0206410004e4cf
:0206420004e5cd
:0206430004e6cb
:0206440004e7c9
:0206450004e7c8
:0206460004e8c6
:0206470004e9c4
:0206480004eac2
:0206490004ebc0
:02064a0004ebbf
:02064b0004ecbd
:02064c0004edbb
:02064d0004eeb9
:02064e0004eeb8
:02064f0004efb6
:0206500004f0b4
:0206510004f1b2
:0206520004f2b0
:0206530004f2af
:0206540004f3ad
:0206550004f4ab
:0206560004f5a9
:0206570004f5a8
:0206580004f6a6
:0206590004f7a4
:02065a0004f8a2
:02065b0004f9a0
:02065c0004f99f
:02065d0004fa9d
:02065e0004fb9b
:02065f0004fc99
:0206600004fc98
:0206610004fd96
:0206620004fe94
:0206630004ff92
:0206640004ff91
:0206650005008e
:0206660005018c
:0206670005028a
:02066800050388
:02066900050387
:02066a00050485
:02066b00050583
:02066c00050681
:02066d00050680
:02066e0005077e
:02066f0005087c
:0206700005097a
:02067100050a78
:02067200050a77
:02067300050b75
:02067400050c73
:02067500050d71
:02067600050d70
:02067700050e6e
:02067800050f6c
:0206790005106a
:02067a00051168
:02067b00051167
:02067c00051265
:02067d00051363
:02067e00051461
:02067f00051460
:0206800005155e
:0206810005165c
:0206820005175a
:02068300051858
:02068400051857
:02068500051955
:02068600051a53
:02068700051b51
:02068800051b50
:02068900051c4e
:02068a00051d4c
:02068b00051e4a
:02068c00051f48
:02068d00051f47
:02068e00052045
:02068f00052143
:02069000052241
:02069100052240
:0206920005233e
:0206930005243c
:0206940005253a
:02069500052539
:02069600052637
:02069700052735
:02069800052833
:02069900052931
:02069a00052930
:02069b00052a2e
:02069c00052b2c
:02069d00052c2a
:02069e00052c29
:02069f00052d27
:0206a000052e25
:0206a100052f23
:0206a200053021
:0206a300053020
:0206a40005311e
:0206a50005321c
:0206a60005331a
:0206a700053319
:0206a800053417
:0206a900053515
:0206aa00053613
:0206ab00053711
:0206ac00053710
:0206ad0005380e
:0206ae0005390c
:0206af00053a0a
:0206b000053a09
:0206b100053b07
:0206b200053c05
:0206b300053d03
:0206b400053e01
:0206b500053e00
:0206b600053ffe
:0206b7000540fc
:0206b8000541fa
:0206b9000541f9
:0206ba000542f7
:0206bb000543f5
:0206bc000544f3
:0206bd000544f2
:0206be000545f0
:0206bf000546ee
:0206c0000547ec
:0206c1000548ea
:0206c2000548e9
:0206c3000549e7
:0206c400054ae5
:0206c500054be3
:0206c600054be2
:0206c700054ce0
:0206c800054dde
:0206c900054edc
:0206ca00054fda
:0206cb00054fd9
:0206cc000550d7
:0206cd000551d5
:0206ce000552d3
:0206cf000552d2
:0206d0000553d0
:0206d1000554ce
:0206d2000555cc
:0206d3000556ca
:0206d4000556c9
:0206d5000557c7
:0206d6000558c5
:0206d7000559c3
:0206d8000559c2
:0206d900055ac0
:0206da00055bbe
:0206db00055cbc
:0206dc00055cbb
:0206dd00055db9
:0206de00055eb7
:0206df00055fb5
:0206e0000560b3
:0206e1000560b2
:0206e2000561b0
:0206e3000562ae
:0206e4000563ac
:0206e5000563ab
:0206e6000564a9
:0206e7000565a7
:0206e8000566a5
:0206e9000567a3
:0206ea000567a2
:0206eb000568a0
:0206ec0005699e
:0206ed00056a9c
:0206ee00056a9b
:0206ef00056b99
:0206f000056c97
:0206f100056d95
:0206f200056e93
:0206f300056e92
:0206f400056f90
:0206f50005708e
:0206f60005718c
:0206f70005718b
:0206f800057289
:0206f900057387
:0206fa00057485
:0206fb00057484
:0206fc00057582
:0206fd00057680
:0206fe0005777e
:0206ff0005787c
:0207000005787a
:02070100057978
:02070200057a76
:02070300057b74
:02070400057b73
:02070500057c71
:02070600057d6f
:02070700057e6d
:02070800057f6b
:02070900057f6a
:02070a00058068
:02070b00058166
:02070c00058264
:02070d00058263
:02070e00058361
:02070f0005845f
:0207100005855d
:0207110005865b
:0207120005865a
:02071300058758
:02071400058856
:02071500058954
:02071600058953
:02071700058a51
:02071800058b4f
:02071900058c4d
:02071a00058c4c
:02071b00058d4a
:02071c00058e48
:02071d00058f46
:02071e00059044
:02071f00059043
:02072000059141
:0207210005923f
:0207220005933d
:0207230005933c
:0207240005943a
:02072500059538
:02072600059636
:02072700059734
:02072800059733
:02072900059831
:02072a0005992f
:02072b00059a2d
:02072c00059a2c
:02072d00059b2a
:02072e00059c28
:02072f00059d26
:02073000059d25
:02073100059e23
:02073200059f21
:0207330005a01f
:0207340005a11d
:0207350005a11c
:0207360005a21a
:0207370005a318
:0207380005a416
:0207390005a415
:02073a0005a513
:02073b0005a611
:02073c0005a70f
:02073d0005a80d
:02073e0005a80c
:02073f0005a90a
:0207400005aa08
:0207410005ab06
:0207420005ab05
:0207430005ac03
:0207440005ad01
:0207450005aeff
:0207460005aefe
:0207470005affc
:0207480005b0fa
:0207490005b1f8
:02074a0005b2f6
:02074b0005b2f5
:02074c0005b3f3
:02074d0005b4f1
:02074e0005b5ef
:02074f0005b5ee
:0207500005b6ec
:0207510005b7ea
:0207520005b8e8
:0207530005b9e6
:0207540005b9e5
:0207550005bae3
:0207560005bbe1
:0207570005bcdf
:0207580005bcde
:0207590005bddc
:02075a0005beda
:02075b0005bfd8
:02075c0005bfd7
:02075d0005c0d5
:02075e0005c1d3
:02075f0005c2d1
:0207600005c3cf
:0207610005c3ce
:0207620005c4cc
:0207630005c5ca
:0207640005c6c8
:0207650005c6c7
:0207660005c7c5
:0207670005c8c3
:0207680005c9c1
:0207690005cabf
:02076a0005cabe
:02076b0005cbbc
:02076c0005ccba
:02076d0005cdb8
:02076e0005cdb7
:02076f0005ceb5
:0207700005cfb3
:0207710005d0b1
:0207720005d0b0
:0207730005d1ae
:0207740005d2ac
:0207750005d3aa
:0207760005d4a8
:0207770005d4a7
:0207780005d5a5
:0207790005d6a3
:02077a0005d7a1
:02077b0005d7a0
:02077c0005d89e
:02077d0005d99c
:02077e0005da9a
:02077f0005db98
:0207800005db97
:0207810005dc95
:0207820005dd93
:0207830005de91
:0207840005de90
:0207850005df8e
:0207860005e08c
:0207870005e18a
:0207880005e189
:0207890005e287
:02078a0005e385
:02078b0005e483
:02078c0005e581
:02078d0005e580
:02078e0005e67e
:02078f0005e77c
:0207900005e87a
:0207910005e879
:0207920005e977
:0207930005ea75
:0207940005eb73
:0207950005eb72
:0207960005ec70
:0207970005ed6e
:0207980005ee6c
:0207990005ef6a
:02079a0005ef69
:02079b0005f067
:02079c0005f165
:02079d0005f263
:02079e0005f262
:02079f0005f360
:0207a00005f45e
:0207a10005f55c
:0207a20005f65a
:0207a30005f659
:0207a40005f757
:0207a50005f855
:0207a60005f953
:0207a70005f952
:0207a80005fa50
:0207a90005fb4e
:0207aa0005fc4c
:0207ab0005fc4b
:0207ac0005fd49
:0207ad0005fe47
:0207ae0005ff45
:0207af00060042
:0207b000060041
:0207b10006013f
:0207b20006023d
:0207b30006033b
:0207b40006033a
:0207b500060438
:0207b600060536
:0207b700060634
:0207b800060633
:0207b900060731
:0207ba0006082f
:0207bb0006092d
:0207bc00060a2b
:0207bd00060a2a
:0207be00060b28
:0207bf00060c26
:0207c000060d24
:0207c100060d23
:0207c200060e21
:0207c300060f1f
:0207c40006101d
:0207c50006111b
:0207c60006111a
:0207c700061218
:0207c800061316
:0207c900061414
:0207ca00061413
:0207cb00061511
:0207cc0006160f
:0207cd0006170d
:0207ce0006170c
:0207cf0006180a
:0207d000061908
:0207d100061a06
:0207d200061b04
:0207d300061b03
:0207d400061c01
:0207d500061dff
:0207d600061efd
:0207d700061efc
:0207d800061ffa
:0207d9000620f8
:0207da000621f6
:0207db000621f5
:0207dc000622f3
:0207dd000623f1
:0207de000624ef
:0207df000625ed
:0207e0000625ec
:0207e1000626ea
:0207e2000627e8
:0207e3000628e6
:0207e4000628e5
:0207e5000629e3
:0207e600062ae1
:0207e700062bdf
:0207e800062bde
:0207e900062cdc
:0207ea00062dda
:0207eb00062ed8
:0207ec00062fd6
:0207ed00062fd5
:0207ee000630d3
:0207ef000631d1
:0207f0000632cf
:0207f1000632ce
:0207f2000633cc
:0207f3000634ca
:0207f4000635c8
:0207f5000636c6
:0207f6000636c5
:0207f7000637c3
:0207f8000638c1
:0207f9000639bf
:0207fa000639be
:0207fb00063abc
:0207fc00063bba
:0207fd00063cb8
:0207fe00063cb7
:0207ff00063db5
:02080000063eb2
:02080100063fb0
:020802000640ae
:020803000640ad
:020804000641ab
:020805000642a9
:020806000643a7
:020807000643a6
:020808000644a4
:020809000645a2
:02080a000646a0
:02080b0006469f
:02080c0006479d
:02080d0006489b
:02080e00064999
:02080f00064a97
:02081000064a96
:02081100064b94
:02081200064c92
:02081300064d90
:02081400064d8f
:02081500064e8d
:02081600064f8b
:02081700065089
:02081800065088
:02081900065186
:02081a00065284
:02081b00065382
:02081c00065480
:02081d0006547f
:02081e0006557d
:02081f0006567b
:02082000065779
:02082100065778
:02082200065876
:02082300065974
:02082400065a72
:02082500065a71
:02082600065b6f
:02082700065c6d
:02082800065d6b
:02082900065e69
:02082a00065e68
:02082b00065f66
:02082c00066064
:02082d00066162
:02082e00066161
:02082f0006625f
:0208300006635d
:0208310006645b
:0208320006645a
:02083300066558
:02083400066656
:02083500066754
:02083600066852
:02083700066851
:0208380006694f
:02083900066a4d
:02083a00066b4b
:02083b00066b4a
:02083c00066c48
:02083d00066d46
:02083e00066e44
:02083f00066e43
:02084000066f41
:0208410006703f
:0208420006713d
:0208430006723b
:0208440006723a
:02084500067338
:02084600067436
:02084700067534
:02084800067533
:02084900067631
:02084a0006772f
:02084b0006782d
:02084c0006782c
:02084d0006792a
:02084e00067a28
:02084f00067b26
:02085000067c24
:02085100067c23
:02085200067d21
:02085300067e1f
:02085400067f1d
:02085500067f1c
:0208560006801a
:02085700068118
:02085800068216
:02085900068215
:02085a00068313
:02085b00068411
:02085c0006850f
:02085d0006860d
:02085e0006860c
:02085f0006870a
:02086000068808
:02086100068906
:02086200068905
:02086300068a03
:02086400068b01
:02086500068cff
:02086600068cfe
:02086700068dfc
:02086800068efa
:02086900068ff8
:02086a000690f6
:02086b000690f5
:02086c000691f3
:02086d000692f1
:02086e000693ef
:02086f000693ee
:020870000694ec
:020871000695ea
:020872000696e8
:020873000696e7
:020874000697e5
:020875000698e3
:020876000699e1
:02087700069adf
:02087800069ade
:02087900069bdc
:02087a00069cda
:02087b00069dd8
:02087c00069dd7
:02087d00069ed5
:02087e00069fd3
:02087f0006a0d1
:0208800006a0d0
:0208810006a1ce
:0208820006a2cc
:0208830006a3ca
:0208840006a4c8
:0208850006a4c7
:0208860006a5c5
:0208870006a6c3
:0208880006a7c1
:0208890006a7c0
:02088a0006a8be
:02088b0006a9bc
:02088c0006aaba
:02088d0006aab9
:02088e0006abb7
:02088f0006acb5
:0208900006adb3
:0208910006aeb1
:0208920006aeb0
:0208930006afae
:0208940006b0ac
:0208950006b1aa
:0208960006b1a9
:0208970006b2a7
:0208980006b3a5
:0208990006b4a3
:02089a0006b4a2
:02089b0006b5a0
:02089c0006b69e
:02089d0006b79c
:02089e0006b79b
:02089f0006b899
:0208a00006b997
:0208a10006ba95
:0208a20006bb93
:0208a30006bb92
:0208a40006bc90
:0208a50006bd8e
:0208a60006be8c
:0208a70006be8b
:0208a80006bf89
:0208a90006c087
:0208aa0006c185
:0208ab0006c184
:0208ac0006c282
:0208ad0006c380
:0208ae0006c47e
:0208af0006c57c
:0208b00006c57b
:0208b10006c679
:0208b20006c777
:0208b30006c875
:0208b40006c874
:0208b50006c972
:0208b60006ca70
:0208b70006cb6e
:0208b80006cb6d
:0208b90006cc6b
:0208ba0006cd69
:0208bb0006ce67
:0208bc0006cf65
:0208bd0006cf64
:0208be0006d062
:0208bf0006d160
:0208c00006d25e
:0208c10006d25d
:0208c20006d35b
:0208c30006d459
:0208c40006d557
:0208c50006d556
:0208c60006d654
:0208c70006d752
:0208c80006d850
:0208c90006d84f
:0208ca0006d94d
:0208cb0006da4b
:0208cc0006db49
:0208cd0006dc47
:0208ce0006dc46
:0208cf0006dd44
:0208d00006de42
:0208d10006df40
:0208d20006df3f
:0208d30006e03d
:0208d40006e13b
:0208d50006e239
:0208d60006e238
:0208d70006e336
:0208d80006e434
:0208d90006e532
:0208da0006e630
:0208db0006e62f
:0208dc0006e72d
:0208dd0006e82b
:0208de0006e929
:0208df0006e928
:0208e00006ea26
:0208e10006eb24
:0208e20006ec22
:0208e30006ec21
:0208e40006ed1f
:0208e50006ee1d
:0208e60006ef1b
:0208e70006ef1a
:0208e80006f018
:0208e90006f116
:0208ea0006f214
:0208eb0006f312
:0208ec0006f311
:0208ed0006f40f
:0208ee0006f50d
:0208ef0006f60b
:0208f00006f60a
:0208f10006f708
:0208f20006f806
:0208f30006f904
:0208f40006f903
:0208f50006fa01
:0208f60006fbff
:0208f70006fcfd
:0208f80006fdfb
:0208f90006fdfa
:0208fa0006fef8
:0208fb0006fff6
:0208fc000700f3
:0208fd000700f2
:0208fe000701f0
:0208ff000702ee
:020900000703eb
:020901000703ea
:020902000704e8
:020903000705e6
:020904000706e4
:020905000706e3
:020906000707e1
:020907000708df
:020908000709dd
:02090900070adb
:02090a00070ada
:02090b00070bd8
:02090c00070cd6
:02090d00070dd4
:02090e00070dd3
:02090f00070ed1
:02091000070fcf
:020911000710cd
:020912000710cc
:020913000711ca
:020914000712c8
:020915000713c6
:020916000714c4
:020917000714c3
:020918000715c1
:020919000716bf
:02091a000717bd
:02091b000717bc
:02091c000718ba
:02091d000719b8
:02091e00071ab6
:02091f00071ab5
:02092000071bb3
:02092100071cb1
:02092200071daf
:02092300071dae
:02092400071eac
:02092500071faa
:020926000720a8
:020927000721a6
:020928000721a5
:020929000722a3
:02092a000723a1
:02092b0007249f
:02092c0007249e
:02092d0007259c
:02092e0007269a
:02092f00072798
:02093000072797
:02093100072895
:02093200072993
:02093300072a91
:02093400072a90
:02093500072b8e
:02093600072c8c
:02093700072d8a
:02093800072e88
:02093900072e87
:02093a00072f85
:02093b00073083
:02093c00073181
:02093d00073180
:02093e0007327e
:02093f0007337c
:0209400007347a
:02094100073479
:02094200073577
:02094300073675
:02094400073773
:02094500073772
:02094600073870
:0209470007396e
:02094800073a6c
:02094900073b6a
:02094a00073b69
:02094b00073c67
:02094c00073d65
:02094d00073e63
:02094e00073e62
:02094f00073f60
:0209500007405e
:0209510007415c
:0209520007415b
:02095300074259
:02095400074357
:02095500074455
:02095600074454
:02095700074552
:02095800074650
:0209590007474e
:02095a0007484c
:02095b0007484b
:02095c00074949
:02095d00074a47
:02095e00074b45
:02095f00074b44
:02096000074c42
:02096100074d40
:02096200074e3e
:02096300074e3d
:02096400074f3b
:02096500075039
:02096600075137
:02096700075136
:02096800075234
:02096900075332
:02096a00075430
:02096b0007552e
:02096c0007552d
:02096d0007562b
:02096e00075729
:02096f00075827
:02097000075826
:02097100075924
:02097200075a22
:02097300075b20
:02097400075b1f
:02097500075c1d
:02097600075d1b
:02097700075e19
:02097800075e18
:02097900075f16
:02097a00076014
:02097b00076112
:02097c00076210
:02097d0007620f
:02097e0007630d
:02097f0007640b
:02098000076509
:02098100076508
:02098200076606
:02098300076704
:02098400076802
:02098500076801
:020986000769ff
:02098700076afd
:02098800076bfb
:02098900076bfa
:02098a00076cf8
:02098b00076df6
:02098c00076ef4
:02098d00076ff2
:02098e00076ff1
:02098f000770ef
:020990000771ed
:020991000772eb
:020992000772ea
:020993000773e8
:020994000774e6
:020995000775e4
:020996000775e3
:020997000776e1
:020998000777df
:020999000778dd
:02099a000778dc
:02099b000779da
:02099c00077ad8
:02099d00077bd6
:02099e00077cd4
:02099f00077cd3
:0209a000077dd1
:0209a100077ecf
:0209a200077fcd
:0209a300077fcc
:0209a4000780ca
:0209a5000781c8
:0209a6000782c6
:0209a7000782c5
:0209a8000783c3
:0209a9000784c1
:0209aa000785bf
:0209ab000785be
:0209ac000786bc
:0209ad000787ba
:0209ae000788b8
:0209af000788b7
:0209b0000789b5
:0209b100078ab3
:0209b200078bb1
:0209b300078caf
:0209b400078cae
:0209b500078dac
:0209b600078eaa
:0209b700078fa8
:0209b800078fa7
:0209b9000790a5
:0209ba000791a3
:0209bb000792a1
:0209bc000792a0
:0209bd0007939e
:0209be0007949c
:0209bf0007959a
:0209c000079599
:0209c100079697
:0209c200079795
:0209c300079893
:0209c400079991
:0209c500079990
:0209c600079a8e
:0209c700079b8c
:0209c800079c8a
:0209c900079c89
:0209ca00079d87
:0209cb00079e85
:0209cc00079f83
:0209cd00079f82
:0209ce0007a080
:0209cf0007a17e
:0209d00007a27c
:0209d10007a27b
:0209d20007a379
:0209d30007a477
:0209d40007a575
:0209d50007a574
:0209d60007a672
:0209d70007a770
:0209d80007a86e
:0209d90007a96c
:0209da0007a96b
:0209db0007aa69
:0209dc0007ab67
:0209dd0007ac65
:0209de0007ac64
:0209df0007ad62
:0209e00007ae60
:0209e10007af5e
:0209e20007af5d
:0209e30007b05b
:0209e40007b159
:0209e50007b257
:0209e60007b256
:0209e70007b354
:0209e80007b452
:0209e90007b550
:0209ea0007b54f
:0209eb0007b64d
:0209ec0007b74b
:0209ed0007b849
:0209ee0007b947
:0209ef0007b946
:0209f00007ba44
:0209f10007bb42
:0209f20007bc40
:0209f30007bc3f
:0209f40007bd3d
:0209f50007be3b
:0209f60007bf39
:0209f70007bf38
:0209f80007c036
:0209f90007c134
:0209fa0007c232
:0209fb0007c231
:0209fc0007c32f
:0209fd0007c42d
:0209fe0007c52b
:0209ff0007c52a
:020a000007c627
:020a010007c725
:020a020007c823
:020a030007c921
:020a040007c920
:020a050007ca1e
:020a060007cb1c
:020a070007cc1a
:020a080007cc19
:020a090007cd17
:020a0a0007ce15
:020a0b0007cf13
:020a0c0007cf12
:020a0d0007d010
:020a0e0007d10e
:020a0f0007d20c
:020a100007d20b
:020a110007d309
:020a120007d407
:020a130007d505
:020a140007d504
:020a150007d602
:020a160007d700
:020a170007d8fe
:020a180007d9fc
:020a190007d9fb
:020a1a0007daf9
:020a1b0007dbf7
:020a1c0007dcf5
:020a1d0007dcf4
:020a1e0007ddf2
:020a1f0007def0
:020a200007dfee
:020a210007dfed
:020a220007e0eb
:020a230007e1e9
:020a240007e2e7
:020a250007e2e6
:020a260007e3e4
:020a270007e4e2
:020a280007e5e0
:020a290007e5df
:020a2a0007e6dd
:020a2b0007e7db
:020a2c0007e8d9
:020a2d0007e9d7
:020a2e0007e9d6
:020a2f0007ead4
:020a300007ebd2
:020a310007ecd0
:020a320007eccf
:020a330007edcd
:020a340007eecb
:020a350007efc9
:020a360007efc8
:020a370007f0c6
:020a380007f1c4
:020a390007f2c2
:020a3a0007f2c1
:020a3b0007f3bf
:020a3c0007f4bd
:020a3d0007f5bb
:020a3e0007f5ba
:020a3f0007f6b8
:020a400007f7b6
:020a410007f8b4
:020a420007f8b3
:020a430007f9b1
:020a440007faaf
:020a450007fbad
:020a460007fcab
:020a470007fcaa
:020a480007fda8
:020a490007fea6
:020a4a0007ffa4
:020a4b0007ffa3
:020a4c000800a0
:020a4d0008019e
:020a4e0008029c
:020a4f0008029b
:020a5000080399
:020a5100080497
:020a5200080595
:020a5300080594
:020a5400080692
:020a5500080790
:020a560008088e
:020a570008088d
:020a580008098b
:020a5900080a89
:020a5a00080b87
:020a5b00080b86
:020a5c00080c84
:020a5d00080d82
:020a5e00080e80
:020a5f00080f7e
:020a6000080f7d
:020a610008107b
:020a6200081179
:020a6300081277
:020a6400081276
:020a6500081374
:020a6600081472
:020a6700081570
:020a680008156f
:020a690008166d
:020a6a0008176b
:020a6b00081869
:020a6c00081868
:020a6d00081966
:020a6e00081a64
:020a6f00081b62
:020a7000081b61
:020a7100081c5f
:020a7200081d5d
:020a7300081e5b
:020a7400081e5a
:020a7500081f58
:020a7600082056
:020a7700082154
:020a7800082252
:020a7900082251
:020a7a0008234f
:020a7b0008244d
:020a7c0008254b
:020a7d0008254a
:020a7e00082648
:020a7f00082746
:020a8000082844
:020a8100082843
:020a8200082941
:020a8300082a3f
:020a8400082b3d
:020a8500082b3c
:020a8600082c3a
:020a8700082d38
:020a8800082e36
:020a8900082e35
:020a8a00082f33
:020a8b00083031
:020a8c0008312f
:020a8d0008312e
:020a8e0008322c
:020a8f0008332a
:020a9000083428
:020a9100083526
:020a9200083525
:020a9300083623
:020a9400083721
:020a950008381f
:020a960008381e
:020a970008391c
:020a9800083a1a
:020a9900083b18
:020a9a00083b17
:020a9b00083c15
:020a9c00083d13
:020a9d00083e11
:020a9e00083e10
:020a9f00083f0e
:020aa00008400c
:020aa10008410a
:020aa200084109
:020aa300084207
:020aa400084305
:020aa500084403
:020aa600084402
:020aa700084500
:020aa8000846fe
:020aa9000847fc
:020aaa000847fb
:020aab000848f9
:020aac000849f7
:020aad00084af5
:020aae00084bf3
:020aaf00084bf2
:020ab000084cf0
:020ab100084dee
:020ab200084eec
:020ab300084eeb
:020ab400084fe9
:020ab5000850e7
:020ab6000851e5
:020ab7000851e4
:020ab8000852e2
:020ab9000853e0
:020aba000854de
:020abb000854dd
:020abc000855db
:020abd000856d9
:020abe000857d7
:020abf000857d6
:020ac0000858d4
:020ac1000859d2
:020ac200085ad0
:020ac300085acf
:020ac400085bcd
:020ac500085ccb
:020ac600085dc9
:020ac700085dc8
:020ac800085ec6
:020ac900085fc4
:020aca000860c2
:020acb000861c0
:020acc000861bf
:020acd000862bd
:020ace000863bb
:020acf000864b9
:020ad0000864b8
:020ad1000865b6
:020ad2000866b4
:020ad3000867b2
:020ad4000867b1
:020ad5000868af
:020ad6000869ad
:020ad700086aab
:020ad800086aaa
:020ad900086ba8
:020ada00086ca6
:020adb00086da4
:020adc00086da3
:020add00086ea1
:020ade00086f9f
:020adf0008709d
:020ae00008709c
:020ae10008719a
:020ae200087298
:020ae300087396
:020ae400087395
:020ae500087493
:020ae600087591
:020ae70008768f
:020ae80008768e
:020ae90008778c
:020aea0008788a
:020aeb00087988
:020aec00087a86
:020aed00087a85
:020aee00087b83
:020aef00087c81
:020af000087d7f
:020af100087d7e
:020af200087e7c
:020af300087f7a
:020af400088078
:020af500088077
:020af600088175
:020af700088273
:020af800088371
:020af900088370
:020afa0008846e
:020afb0008856c
:020afc0008866a
:020afd00088669
:020afe00088767
:020aff00088865
:020b0000088962
:020b0100088961
:020b0200088a5f
:020b0300088b5d
:020b0400088c5b
:020b0500088c5a
:020b0600088d58
:020b0700088e56
:020b0800088f54
:020b0900088f53
:020b0a00089051
:020b0b0008914f
:020b0c0008924d
:020b0d0008924c
:020b0e0008934a
:020b0f00089448
:020b1000089546
:020b1100089644
:020b1200089643
:020b1300089741
:020b140008983f
:020b150008993d
:020b160008993c
:020b1700089a3a
:020b1800089b38
:020b1900089c36
:020b1a00089c35
:020b1b00089d33
:020b1c00089e31
:020b1d00089f2f
:020b1e00089f2e
:020b1f0008a02c
:020b200008a12a
:020b210008a228
:020b220008a227
:020b230008a325
:020b240008a423
:020b250008a521
:020b260008a520
:020b270008a61e
:020b280008a71c
:020b290008a81a
:020b2a0008a819
:020b2b0008a917
:020b2c0008aa15
:020b2d0008ab13
:020b2e0008ab12
:020b2f0008ac10
:020b300008ad0e
:020b310008ae0c
:020b320008ae0b
:020b330008af09
:020b340008b007
:020b350008b105
:020b360008b104
:020b370008b202
:020b380008b300
:020b390008b4fe
:020b3a0008b5fc
:020b3b0008b5fb
:020b3c0008b6f9
:020b3d0008b7f7
:020b3e0008b8f5
:020b3f0008b8f4
:020b400008b9f2
:020b410008baf0
:020b420008bbee
:020b430008bbed
:020b440008bceb
:020b450008bde9
:020b460008bee7
:020b470008bee6
:020b480008bfe4
:020b490008c0e2
:020b4a0008c1e0
:020b4b0008c1df
:020b4c0008c2dd
:020b4d0008c3db
:020b4e0008c4d9
:020b4f0008c4d8
:020b500008c5d6
:020b510008c6d4
:020b520008c7d2
:020b530008c7d1
:020b540008c8cf
:020b550008c9cd
:020b560008cacb
:020b570008caca
:020b580008cbc8
:020b590008ccc6
:020b5a0008cdc4
:020b5b0008cdc3
:020b5c0008cec1
:020b5d0008cfbf
:020b5e0008d0bd
:020b5f0008d0bc
:020b600008d1ba
:020b610008d2b8
:020b620008d3b6
:020b630008d3b5
:020b640008d4b3
:020b650008d5b1
:020b660008d6af
:020b670008d6ae
:020b680008d7ac
:020b690008d8aa
:020b6a0008d9a8
:020b6b0008daa6
:020b6c0008daa5
:020b6d0008dba3
:020b6e0008dca1
:020b6f0008dd9f
:020b700008dd9e
:020b710008de9c
:020b720008df9a
:020b730008e098
:020b740008e097
:020b750008e195
:020b760008e293
:020b770008e391
:020b780008e390
:020b790008e48e
:020b7a0008e58c
:020b7b0008e68a
:020b7c0008e689
:020b7d0008e787
:020b7e0008e885
:020b7f0008e983
:020b800008e982
:020b810008ea80
:020b820008eb7e
:020b830008ec7c
:020b840008ec7b
:020b850008ed79
:020b860008ee77
:020b870008ef75
:020b880008ef74
:020b890008f072
:020b8a0008f170
:020b8b0008f26e
:020b8c0008f26d
:020b8d0008f36b
:020b8e0008f469
:020b8f0008f567
:020b900008f566
:020b910008f664
:020b920008f762
:020b930008f860
:020b940008f85f
:020b950008f95d
:020b960008fa5b
:020b970008fb59
:020b980008fb58
:020b990008fc56
:020b9a0008fd54
:020b9b0008fe52
:020b9c0008fe51
:020b9d0008ff4f
:020b9e0009004c
:020b9f0009014a
:020ba000090149
:020ba100090247
:020ba200090345
:020ba300090443
:020ba400090442
:020ba500090540
:020ba60009063e
:020ba70009073c
:020ba80009083a
:020ba900090839
:020baa00090937
:020bab00090a35
:020bac00090b33
:020bad00090b32
:020bae00090c30
:020baf00090d2e
:020bb000090e2c
:020bb100090e2b
:020bb200090f29
:020bb300091027
:020bb400091125
:020bb500091124
:020bb600091222
:020bb700091320
:020bb80009141e
:020bb90009141d
:020bba0009151b
:020bbb00091619
:020bbc00091717
:020bbd00091716
:020bbe00091814
:020bbf00091912
:020bc000091a10
:020bc100091a0f
:020bc200091b0d
:020bc300091c0b
:020bc400091d09
:020bc500091d08
:020bc600091e06
:020bc700091f04
:020bc800092002
:020bc900092001
:020bca000921ff
:020bcb000922fd
:020bcc000923fb
:020bcd000923fa
:020bce000924f8
:020bcf000925f6
:020bd0000926f4
:020bd1000926f3
:020bd2000927f1
:020bd3000928ef
:020bd4000929ed
:020bd5000929ec
:020bd600092aea
:020bd700092be8
:020bd800092ce6
:020bd900092ce5
:020bda00092de3
:020bdb00092ee1
:020bdc00092fdf
:020bdd00092fde
:020bde000930dc
:020bdf000931da
:020be0000932d8
:020be1000932d7
:020be2000933d5
:020be3000934d3
:020be4000935d1
:020be5000935d0
:020be6000936ce
:020be7000937cc
:020be8000938ca
:020be9000938c9
:020bea000939c7
:020beb00093ac5
:020bec00093bc3
:020bed00093bc2
:020bee00093cc0
:020bef00093dbe
:020bf000093ebc
:020bf100093ebb
:020bf200093fb9
:020bf3000940b7
:020bf4000941b5
:020bf5000941b4
:020bf6000942b2
:020bf7000943b0
:020bf8000944ae
:020bf9000944ad
:020bfa000945ab
:020bfb000946a9
:020bfc000947a7
:020bfd000947a6
:020bfe000948a4
:020bff000949a2
:020c0000094a9f
:020c0100094a9e
:020c0200094b9c
:020c0300094c9a
:020c0400094d98
:020c0500094d97
:020c0600094e95
:020c0700094f93
:020c0800095091
:020c0900095090
:020c0a0009518e
:020c0b0009528c
:020c0c0009538a
:020c0d00095389
:020c0e00095487
:020c0f00095585
:020c1000095683
:020c1100095682
:020c1200095780
:020c130009587e
:020c140009597c
:020c150009597b
:020c1600095a79
:020c1700095b77
:020c1800095c75
:020c1900095d73
:020c1a00095d72
:020c1b00095e70
:020c1c00095f6e
:020c1d0009606c
:020c1e0009606b
:020c1f00096169
:020c2000096267
:020c2100096365
:020c2200096364
:020c2300096462
:020c2400096560
:020c250009665e
:020c260009665d
:020c270009675b
:020c2800096859
:020c2900096957
:020c2a00096956
:020c2b00096a54
:020c2c00096b52
:020c2d00096c50
:020c2e00096c4f
:020c2f00096d4d
:020c3000096e4b
:020c3100096f49
:020c3200096f48
:020c3300097046
:020c3400097144
:020c3500097242
:020c3600097241
:020c370009733f
:020c380009743d
:020c390009753b
:020c3a0009753a
:020c3b00097638
:020c3c00097736
:020c3d00097834
:020c3e00097833
:020c3f00097931
:020c4000097a2f
:020c4100097b2d
:020c4200097b2c
:020c4300097c2a
:020c4400097d28
:020c4500097e26
:020c4600097e25
:020c4700097f23
:020c4800098021
:020c490009811f
:020c4a0009811e
:020c4b0009821c
:020c4c0009831a
:020c4d00098418
:020c4e00098417
:020c4f00098515
:020c5000098613
:020c5100098711
:020c5200098710
:020c530009880e
:020c540009890c
:020c5500098a0a
:020c5600098a09
:020c5700098b07
:020c5800098c05
:020c5900098d03
:020c5a00098d02
:020c5b00098e00
:020c5c00098ffe
:020c5d000990fc
:020c5e000990fb
:020c5f000991f9
:020c60000992f7
:020c61000993f5
:020c62000993f4
:020c63000994f2
:020c64000995f0
:020c65000996ee
:020c66000996ed
:020c67000997eb
:020c68000998e9
:020c69000999e7
:020c6a000999e6
:020c6b00099ae4
:020c6c00099be2
:020c6d00099ce0
:020c6e00099cdf
:020c6f00099ddd
:020c7000099edb
:020c7100099eda
:020c7200099fd8
:020c730009a0d6
:020c740009a1d4
:020c750009a1d3
:020c760009a2d1
:020c770009a3cf
:020c780009a4cd
:020c790009a4cc
:020c7a0009a5ca
:020c7b0009a6c8
:020c7c0009a7c6
:020c7d0009a7c5
:020c7e0009a8c3
:020c7f0009a9c1
:020c800009aabf
:020c810009aabe
:020c820009abbc
:020c830009acba
:020c840009adb8
:020c850009adb7
:020c860009aeb5
:020c870009afb3
:020c880009b0b1
:020c890009b0b0
:020c8a0009b1ae
:020c8b0009b2ac
:020c8c0009b3aa
:020c8d0009b3a9
:020c8e0009b4a7
:020c8f0009b5a5
:020c900009b6a3
:020c910009b6a2
:020c920009b7a0
:020c930009b89e
:020c940009b99c
:020c950009b99b
:020c960009ba99
:020c970009bb97
:020c980009bc95
:020c990009bc94
:020c9a0009bd92
:020c9b0009be90
:020c9c0009bf8e
:020c9d0009bf8d
:020c9e0009c08b
:020c9f0009c189
:020ca00009c287
:020ca10009c286
:020ca20009c384
:020ca30009c482
:020ca40009c580
:020ca50009c57f
:020ca60009c67d
:020ca70009c77b
:020ca80009c879
:020ca90009c878
:020caa0009c976
:020cab0009ca74
:020cac0009cb72
:020cad0009cb71
:020cae0009cc6f
:020caf0009cd6d
:020cb00009ce6b
:020cb10009ce6a
:020cb20009cf68
:020cb30009d066
:020cb40009d164
:020cb50009d163
:020cb60009d261
:020cb70009d35f
:020cb80009d45d
:020cb90009d45c
:020cba0009d55a
:020cbb0009d658
:020cbc0009d756
:020cbd0009d755
:020cbe0009d853
:020cbf0009d951
:020cc00009da4f
:020cc10009da4e
:020cc20009db4c
:020cc30009dc4a
:020cc40009dd48
:020cc50009dd47
:020cc60009de45
:020cc70009df43
:020cc80009e041
:020cc90009e040
:020cca0009e13e
:020ccb0009e23c
:020ccc0009e33a
:020ccd0009e339
:020cce0009e437
:020ccf0009e535
:020cd00009e633
:020cd10009e632
:020cd20009e730
:020cd30009e82e
:020cd40009e92c
:020cd50009e92b
:020cd60009ea29
:020cd70009eb27
:020cd80009ec25
:020cd90009ec24
:020cda0009ed22
:020cdb0009ee20
:020cdc0009ef1e
:020cdd0009ef1d
:020cde0009f01b
:020cdf0009f119
:020ce00009f118
:020ce10009f216
:020ce20009f314
:020ce30009f412
:020ce40009f411
:020ce50009f50f
:020ce60009f60d
:020ce70009f70b
:020ce80009f70a
:020ce90009f808
:020cea0009f906
:020ceb0009fa04
:020cec0009fa03
:020ced0009fb01
:020cee0009fcff
:020cef0009fdfd
:020cf00009fdfc
:020cf10009fefa
:020cf20009fff8
:020cf3000a00f5
:020cf4000a00f4
:020cf5000a01f2
:020cf6000a02f0
:020cf7000a03ee
:020cf8000a03ed
:020cf9000a04eb
:020cfa000a05e9
:020cfb000a06e7
:020cfc000a06e6
:020cfd000a07e4
:020cfe000a08e2
:020cff000a09e0
:020d00000a09de
:020d01000a0adc
:020d02000a0bda
:020d03000a0cd8
:020d04000a0cd7
:020d05000a0dd5
:020d06000a0ed3
:020d07000a0fd1
:020d08000a0fd0
:020d09000a10ce
:020d0a000a11cc
:020d0b000a12ca
:020d0c000a12c9
:020d0d000a13c7
:020d0e000a14c5
:020d0f000a15c3
:020d10000a15c2
:020d11000a16c0
:020d12000a17be
:020d13000a18bc
:020d14000a18bb
:020d15000a19b9
:020d16000a1ab7
:020d17000a1bb5
:020d18000a1bb4
:020d19000a1cb2
:020d1a000a1db0
:020d1b000a1daf
:020d1c000a1ead
:020d1d000a1fab
:020d1e000a20a9
:020d1f000a20a8
:020d20000a21a6
:020d21000a22a4
:020d22000a23a2
:020d23000a23a1
:020d24000a249f
:020d25000a259d
:020d26000a269b
:020d27000a269a
:020d28000a2798
:020d29000a2896
:020d2a000a2994
:020d2b000a2993
:020d2c000a2a91
:020d2d000a2b8f
:020d2e000a2c8d
:020d2f000a2c8c
:020d30000a2d8a
:020d31000a2e88
:020d32000a2f86
:020d33000a2f85
:020d34000a3083
:020d35000a3181
:020d36000a327f
:020d37000a327e
:020d38000a337c
:020d39000a347a
:020d3a000a3578
:020d3b000a3577
:020d3c000a3675
:020d3d000a3773
:020d3e000a3871
:020d3f000a3870
:020d40000a396e
:020d41000a3a6c
:020d42000a3b6a
:020d43000a3b69
:020d44000a3c67
:020d45000a3d65
:020d46000a3e63
:020d47000a3e62
:020d48000a3f60
:020d49000a405e
:020d4a000a405d
:020d4b000a415b
:020d4c000a4259
:020d4d000a4357
:020d4e000a4356
:020d4f000a4454
:020d50000a4552
:020d51000a4650
:020d52000a464f
:020d53000a474d
:020d54000a484b
:020d55000a4949
:020d56000a4948
:020d57000a4a46
:020d58000a4b44
:020d59000a4c42
:020d5a000a4c41
:020d5b000a4d3f
:020d5c000a4e3d
:020d5d000a4f3b
:020d5e000a4f3a
:020d5f000a5038
:020d60000a5136
:020d61000a5234
:020d62000a5233
:020d63000a5331
:020d64000a542f
:020d65000a552d
:020d66000a552c
:020d67000a562a
:020d68000a5728
:020d69000a5826
:020d6a000a5825
:020d6b000a5923
:020d6c000a5a21
:020d6d000a5b1f
:020d6e000a5b1e
:020d6f000a5c1c
:020d70000a5d1a
:020d71000a5d19
:020d72000a5e17
:020d73000a5f15
:020d74000a6013
:020d75000a6012
:020d76000a6110
:020d77000a620e
:020d78000a630c
:020d79000a630b
:020d7a000a6409
:020d7b000a6507
:020d7c000a6605
:020d7d000a6604
:020d7e000a6702
:020d7f000a6800
:020d80000a69fe
:020d81000a69fd
:020d82000a6afb
:020d83000a6bf9
:020d84000a6cf7
:020d85000a6cf6
:020d86000a6df4
:020d87000a6ef2
:020d88000a6ff0
:020d89000a6fef
:020d8a000a70ed
:020d8b000a71eb
:020d8c000a72e9
:020d8d000a72e8
:020d8e000a73e6
:020d8f000a74e4
:020d90000a74e3
:020d91000a75e1
:020d92000a76df
:020d93000a77dd
:020d94000a77dc
:020d95000a78da
:020d96000a79d8
:020d97000a7ad6
:020d98000a7ad5
:020d99000a7bd3
:020d9a000a7cd1
:020d9b000a7dcf
:020d9c000a7dce
:020d9d000a7ecc
:020d9e000a7fca
:020d9f000a80c8
:020da0000a80c7
:020da1000a81c5
:020da2000a82c3
:020da3000a83c1
:020da4000a83c0
:020da5000a84be
:020da6000a85bc
:020da7000a86ba
:020da8000a86b9
:020da9000a87b7
:020daa000a88b5
:020dab000a89b3
:020dac000a89b2
:020dad000a8ab0
:020dae000a8bae
:020daf000a8bad
:020db0000a8cab
:020db1000a8da9
:020db2000a8ea7
:020db3000a8ea6
:020db4000a8fa4
:020db5000a90a2
:020db6000a91a0
:020db7000a919f
:020db8000a929d
:020db9000a939b
:020dba000a9499
:020dbb000a9498
:020dbc000a9596
:020dbd000a9694
:020dbe000a9792
:020dbf000a9791
:020dc0000a988f
:020dc1000a998d
:020dc2000a9a8b
:020dc3000a9a8a
:020dc4000a9b88
:020dc5000a9c86
:020dc6000a9d84
:020dc7000a9d83
:020dc8000a9e81
:020dc9000a9f7f
:020dca000aa07d
:020dcb000aa07c
:020dcc000aa17a
:020dcd000aa278
:020dce000aa277
:020dcf000aa375
:020dd0000aa473
:020dd1000aa571
:020dd2000aa570
:020dd3000aa66e
:020dd4000aa76c
:020dd5000aa86a
:020dd6000aa869
:020dd7000aa967
:020dd8000aaa65
:020dd9000aab63
:020dda000aab62
:020ddb000aac60
:020ddc000aad5e
:020ddd000aae5c
:020dde000aae5b
:020ddf000aaf59
:020de0000ab057
:020de1000ab155
:020de2000ab154
:020de3000ab252
:020de4000ab350
:020de5000ab34f
:020de6000ab44d
:020de7000ab54b
:020de8000ab649
:020de9000ab648
:020dea000ab746
:020deb000ab844
:020dec000ab942
:020ded000ab941
:020dee000aba3f
:020def000abb3d
:020df0000abc3b
:020df1000abc3a
:020df2000abd38
:020df3000abe36
:020df4000abf34
:020df5000abf33
:020df6000ac031
:020df7000ac12f
:020df8000ac22d
:020df9000ac22c
:020dfa000ac32a
:020dfb000ac428
:020dfc000ac526
:020dfd000ac525
:020dfe000ac623
:020dff000ac721
:020e00000ac71f
:020e01000ac81d
:020e02000ac91b
:020e03000aca19
:020e04000aca18
:020e05000acb16
:020e06000acc14
:020e07000acd12
:020e08000acd11
:020e09000ace0f
:020e0a000acf0d
:020e0b000ad00b
:020e0c000ad00a
:020e0d000ad108
:020e0e000ad206
:020e0f000ad304
:020e10000ad303
:020e11000ad401
:020e12000ad5ff
:020e13000ad6fd
:020e14000ad6fc
:020e15000ad7fa
:020e16000ad8f8
:020e17000ad8f7
:020e18000ad9f5
:020e19000adaf3
:020e1a000adbf1
:020e1b000adbf0
:020e1c000adcee
:020e1d000addec
:020e1e000adeea
:020e1f000adee9
:020e20000adfe7
:020e21000ae0e5
:020e22000ae1e3
:020e23000ae1e2
:020e24000ae2e0
:020e25000ae3de
:020e26000ae4dc
:020e27000ae4db
:020e28000ae5d9
:020e29000ae6d7
:020e2a000ae6d6
:020e2b000ae7d4
:020e2c000ae8d2
:020e2d000ae9d0
:020e2e000ae9cf
:020e2f000aeacd
:020e30000aebcb
:020e31000aecc9
:020e32000aecc8
:020e33000aedc6
:020e34000aeec4
:020e35000aefc2
:020e36000aefc1
:020e37000af0bf
:020e38000af1bd
:020e39000af2bb
:020e3a000af2ba
:020e3b000af3b8
:020e3c000af4b6
:020e3d000af5b4
:020e3e000af5b3
:020e3f000af6b1
:020e40000af7af
:020e41000af7ae
:020e42000af8ac
:020e43000af9aa
:020e44000afaa8
:020e45000afaa7
:020e46000afba5
:020e47000afca3
:020e48000afda1
:020e49000afda0
:020e4a000afe9e
:020e4b000aff9c
:020e4c000b0099
:020e4d000b0098
:020e4e000b0196
:020e4f000b0294
:020e50000b0392
:020e51000b0391
:020e52000b048f
:020e53000b058d
:020e54000b058c
:020e55000b068a
:020e56000b0788
:020e57000b0886
:020e58000b0885
:020e59000b0983
:020e5a000b0a81
:020e5b000b0b7f
:020e5c000b0b7e
:020e5d000b0c7c
:020e5e000b0d7a
:020e5f000b0e78
:020e60000b0e77
:020e61000b0f75
:020e62000b1073
:020e63000b1171
:020e64000b1170
:020e65000b126e
:020e66000b136c
:020e67000b136b
:020e68000b1469
:020e69000b1567
:020e6a000b1665
:020e6b000b1664
:020e6c000b1762
:020e6d000b1860
:020e6e000b195e
:020e6f000b195d
:020e70000b1a5b
:020e71000b1b59
:020e72000b1c57
:020e73000b1c56
:020e74000b1d54
:020e75000b1e52
:020e76000b1f50
:020e77000b1f4f
:020e78000b204d
:020e79000b214b
:020e7a000b214a
:020e7b000b2248
:020e7c000b2346
:020e7d000b2444
:020e7e000b2443
:020e7f000b2541
:020e80000b263f
:020e81000b273d
:020e82000b273c
:020e83000b283a
:020e84000b2938
:020e85000b2a36
:020e86000b2a35
:020e87000b2b33
:020e88000b2c31
:020e89000b2d2f
:020e8a000b2d2e
:020e8b000b2e2c
:020e8c000b2f2a
:020e8d000b2f29
:020e8e000b3027
:020e8f000b3125
:020e90000b3223
:020e91000b3222
:020e92000b3320
:020e93000b341e
:020e94000b351c
:020e95000b351b
:020e96000b3619
:020e97000b3717
:020e98000b3815
:020e99000b3814
:020e9a000b3912
:020e9b000b3a10
:020e9c000b3a0f
:020e9d000b3b0d
:020e9e000b3c0b
:020e9f000b3d09
:020ea0000b3d08
:020ea1000b3e06
:020ea2000b3f04
:020ea3000b4002
:020ea4000b4001
:020ea5000b41ff
:020ea6000b42fd
:020ea7000b43fb
:020ea8000b43fa
:020ea9000b44f8
:020eaa000b45f6
:020eab000b46f4
:020eac000b46f3
:020ead000b47f1
:020eae000b48ef
:020eaf000b48ee
:020eb0000b49ec
:020eb1000b4aea
:020eb2000b4be8
:020eb3000b4be7
:020eb4000b4ce5
:020eb5000b4de3
:020eb6000b4ee1
:020eb7000b4ee0
:020eb8000b4fde
:020eb9000b50dc
:020eba000b51da
:020ebb000b51d9
:020ebc000b52d7
:020ebd000b53d5
:020ebe000b53d4
:020ebf000b54d2
:020ec0000b55d0
:020ec1000b56ce
:020ec2000b56cd
:020ec3000b57cb
:020ec4000b58c9
:020ec5000b59c7
:020ec6000b59c6
:020ec7000b5ac4
:020ec8000b5bc2
:020ec9000b5cc0
:020eca000b5cbf
:020ecb000b5dbd
:020ecc000b5ebb
:020ecd000b5eba
:020ece000b5fb8
:020ecf000b60b6
:020ed0000b61b4
:020ed1000b61b3
:020ed2000b62b1
:020ed3000b63af
:020ed4000b64ad
:020ed5000b64ac
:020ed6000b65aa
:020ed7000b66a8
:020ed8000b67a6
:020ed9000b67a5
:020eda000b68a3
:020edb000b69a1
:020edc000b6a9f
:020edd000b6a9e
:020ede000b6b9c
:020edf000b6c9a
:020ee0000b6c99
:020ee1000b6d97
:020ee2000b6e95
:020ee3000b6f93
:020ee4000b6f92
:020ee5000b7090
:020ee6000b718e
:020ee7000b728c
:020ee8000b728b
:020ee9000b7389
:020eea000b7487
:020eeb000b7585
:020eec000b7584
:020eed000b7682
:020eee000b7780
:020eef000b777f
:020ef0000b787d
:020ef1000b797b
:020ef2000b7a79
:020ef3000b7a78
:020ef4000b7b76
:020ef5000b7c74
:020ef6000b7d72
:020ef7000b7d71
:020ef8000b7e6f
:020ef9000b7f6d
:020efa000b806b
:020efb000b806a
:020efc000b8168
:020efd000b8266
:020efe000b8265
:020eff000b8363
:020f00000b8460
:020f01000b855e
:020f02000b855d
:020f03000b865b
:020f04000b8759
:020f05000b8857
:020f06000b8856
:020f07000b8954
:020f08000b8a52
:020f09000b8a51
:020f0a000b8b4f
:020f0b000b8c4d
:020f0c000b8d4b
:020f0d000b8d4a
:020f0e000b8e48
:020f0f000b8f46
:020f10000b9044
:020f11000b9043
:020f12000b9141
:020f13000b923f
:020f14000b933d
:020f15000b933c
:020f16000b943a
:020f17000b9538
:020f18000b9537
:020f19000b9635
:020f1a000b9733
:020f1b000b9831
:020f1c000b9830
:020f1d000b992e
:020f1e000b9a2c
:020f1f000b9b2a
:020f20000b9b29
:020f21000b9c27
:020f22000b9d25
:020f23000b9e23
:020f24000b9e22
:020f25000b9f20
:020f26000ba01e
:020f27000ba01d
:020f28000ba11b
:020f29000ba219
:020f2a000ba317
:020f2b000ba316
:020f2c000ba414
:020f2d000ba512
:020f2e000ba610
:020f2f000ba60f
:020f30000ba70d
:020f31000ba80b
:020f32000ba909
:020f33000ba908
:020f34000baa06
:020f35000bab04
:020f36000bab03
:020f37000bac01
:020f38000badff
:020f39000baefd
:020f3a000baefc
:020f3b000baffa
:020f3c000bb0f8
:020f3d000bb1f6
:020f3e000bb1f5
:020f3f000bb2f3
:020f40000bb3f1
:020f41000bb3f0
:020f42000bb4ee
:020f43000bb5ec
:020f44000bb6ea
:020f45000bb6e9
:020f46000bb7e7
:020f47000bb8e5
:020f48000bb9e3
:020f49000bb9e2
:020f4a000bbae0
:020f4b000bbbde
:020f4c000bbcdc
:020f4d000bbcdb
:020f4e000bbdd9
:020f4f000bbed7
:020f50000bbed6
:020f51000bbfd4
:020f52000bc0d2
:020f53000bc1d0
:020f54000bc1cf
:020f55000bc2cd
:020f56000bc3cb
:020f57000bc4c9
:020f58000bc4c8
:020f59000bc5c6
:020f5a000bc6c4
:020f5b000bc6c3
:020f5c000bc7c1
:020f5d000bc8bf
:020f5e000bc9bd
:020f5f000bc9bc
:020f60000bcaba
:020f61000bcbb8
:020f62000bccb6
:020f63000bccb5
:020f64000bcdb3
:020f65000bceb1
:020f66000bceb0
:020f67000bcfae
:020f68000bd0ac
:020f69000bd1aa
:020f6a000bd1a9
:020f6b000bd2a7
:020f6c000bd3a5
:020f6d000bd4a3
:020f6e000bd4a2
:020f6f000bd5a0
:020f70000bd69e
:020f71000bd79c
:020f72000bd79b
:020f73000bd899
:020f74000bd997
:020f75000bd996
:020f76000bda94
:020f77000bdb92
:020f78000bdc90
:020f79000bdc8f
:020f7a000bdd8d
:020f7b000bde8b
:020f7c000bdf89
:020f7d000bdf88
:020f7e000be086
:020f7f000be184
:020f80000be183
:020f81000be281
:020f82000be37f
:020f83000be47d
:020f84000be47c
:020f85000be57a
:020f86000be678
:020f87000be776
:020f88000be775
:020f89000be873
:020f8a000be971
:020f8b000be970
:020f8c000bea6e
:020f8d000beb6c
:020f8e000bec6a
:020f8f000bec69
:020f90000bed67
:020f91000bee65
:020f92000bef63
:020f93000bef62
:020f94000bf060
:020f95000bf15e
:020f96000bf15d
:020f97000bf25b
:020f98000bf359
:020f99000bf457
:020f9a000bf456
:020f9b000bf554
:020f9c000bf652
:020f9d000bf750
:020f9e000bf74f
:020f9f000bf84d
