:0300000001fffffe
:0300010001fffffd
:0300020001fffffc
:0300030001fffffb
:0300040001fffffa
:0300050001fffff9
:0300060001fffff8
:0300070001fffff7
:0300080001fffff6
:0300090001fffff5
:03000a0001fffff4
:03000b0001fffff3
:03000c0001fffff2
:03000d0001fffff1
:03000e0001fffff0
:03000f0001ffffef
:0300100001ffffee
:0300110001ffffed
:0300120001ffffec
:0300130001ffffeb
:0300140001ffffea
:0300150001ffffe9
:0300160001ffffe8
:0300170001ffffe7
:0300180001ffffe6
:0300190001ffffe5
:03001a0001ffffe4
:03001b0001ffffe3
:03001c0001ffffe2
:03001d0001fffee2
:03001e0001fffee1
:03001f0001fffee0
:0300200001fffedf
:0300210001fffede
:0300220001fffedd
:0300230001fffedc
:0300240001fffedb
:0300250001fffeda
:0300260001fffed9
:0300270001fffed8
:0300280001fffed7
:0300290001fffed6
:03002a0001fffed5
:03002b0001fffed4
:03002c0001fffed3
:03002d0001fffed2
:03002e0001fffed1
:03002f0001fffed0
:0300300001fffecf
:0300310001fffece
:0300320001fffdce
:0300330001fffdcd
:0300340001fffdcc
:0300350001fffdcb
:0300360001fffdca
:0300370001fffdc9
:0300380001fffdc8
:0300390001fffdc7
:03003a0001fffdc6
:03003b0001fffdc5
:03003c0001fffdc4
:03003d0001fffdc3
:03003e0001fffdc2
:03003f0001fffdc1
:0300400001fffdc0
:0300410001fffcc0
:0300420001fffcbf
:0300430001fffcbe
:0300440001fffcbd
:0300450001fffcbc
:0300460001fffcbb
:0300470001fffcba
:0300480001fffcb9
:0300490001fffcb8
:03004a0001fffcb7
:03004b0001fffcb6
:03004c0001fffcb5
:03004d0001fffbb5
:03004e0001fffbb4
:03004f0001fffbb3
:0300500001fffbb2
:0300510001fffbb1
:0300520001fffbb0
:0300530001fffbaf
:0300540001fffbae
:0300550001fffbad
:0300560001fffbac
:0300570001fffaac
:0300580001fffaab
:0300590001fffaaa
:03005a0001fffaa9
:03005b0001fffaa8
:03005c0001fffaa7
:03005d0001fffaa6
:03005e0001fffaa5
:03005f0001fffaa4
:0300600001fff9a4
:0300610001fff9a3
:0300620001fff9a2
:0300630001fff9a1
:0300640001fff9a0
:0300650001fff99f
:0300660001fff99e
:0300670001fff99d
:0300680001fff89d
:0300690001fff89c
:03006a0001fff89b
:03006b0001fff89a
:03006c0001fff899
:03006d0001fff898
:03006e0001fff897
:03006f0001fff896
:0300700001fff796
:0300710001fff795
:0300720001fff794
:0300730001fff793
:0300740001fff792
:0300750001fff791
:0300760001fff790
:0300770001fff690
:0300780001fff68f
:0300790001fff68e
:03007a0001fff68d
:03007b0001fff68c
:03007c0001fff68b
:03007d0001fff68a
:03007e0001fff58a
:03007f0001fff589
:0300800001fff588
:0300810001fff587
:0300820001fff586
:0300830001fff585
:0300840001fff584
:0300850001fff484
:0300860001fff483
:0300870001fff482
:0300880001fff481
:0300890001fff480
:03008a0001fff47f
:03008b0001fff37f
:03008c0001fff37e
:03008d0001fff37d
:03008e0001fff37c
:03008f0001fff37b
:0300900001fff37a
:0300910001fff27a
:0300920001fff279
:0300930001fff278
:0300940001fff277
:0300950001fff276
:0300960001fff176
:0300970001fff175
:0300980001fff174
:0300990001fff173
:03009a0001fff172
:03009b0001fff171
:03009c0001fff071
:03009d0001fff070
:03009e0001fff06f
:03009f0001fff06e
:0300a00001fff06d
:0300a10001ffef6d
:0300a20001ffef6c
:0300a30001ffef6b
:0300a40001ffef6a
:0300a50001ffef69
:0300a60001ffee69
:0300a70001ffee68
:0300a80001ffee67
:0300a90001ffee66
:0300aa0001ffee65
:0300ab0001ffed65
:0300ac0001ffed64
:0300ad0001ffed63
:0300ae0001ffed62
:0300af0001ffed61
:0300b00001ffec61
:0300b10001ffec60
:0300b20001ffec5f
:0300b30001ffec5e
:0300b40001ffeb5e
:0300b50001ffeb5d
:0300b60001ffeb5c
:0300b70001ffeb5b
:0300b80001ffeb5a
:0300b90001ffea5a
:0300ba0001ffea59
:0300bb0001ffea58
:0300bc0001ffea57
:0300bd0001ffe957
:0300be0001ffe956
:0300bf0001ffe955
:0300c00001ffe954
:0300c10001ffe953
:0300c20001ffe853
:0300c30001ffe852
:0300c40001ffe851
:0300c50001ffe850
:0300c60001ffe750
:0300c70001ffe74f
:0300c80001ffe74e
:0300c90001ffe74d
:0300ca0001ffe64d
:0300cb0001ffe64c
:0300cc0001ffe64b
:0300cd0001ffe64a
:0300ce0001ffe54a
:0300cf0001ffe549
:0300d00001ffe548
:0300d10001ffe547
:0300d20001ffe447
:0300d30001ffe446
:0300d40001ffe445
:0300d50001ffe444
:0300d60001ffe344
:0300d70001ffe343
:0300d80001ffe342
:0300d90001ffe341
:0300da0001ffe241
:0300db0001ffe240
:0300dc0001ffe23f
:0300dd0001ffe23e
:0300de0001ffe13e
:0300df0001ffe13d
:0300e00001ffe13c
:0300e10001ffe13b
:0300e20001ffe03b
:0300e30001ffe03a
:0300e40001ffe039
:0300e50001ffdf39
:0300e60001ffdf38
:0300e70001ffdf37
:0300e80001ffdf36
:0300e90001ffde36
:0300ea0001ffde35
:0300eb0001ffde34
:0300ec0001ffdd34
:0300ed0001ffdd33
:0300ee0001ffdd32
:0300ef0001ffdd31
:0300f00001ffdc31
:0300f10001ffdc30
:0300f20001ffdc2f
:0300f30001ffdb2f
:0300f40001ffdb2e
:0300f50001ffdb2d
:0300f60001ffdb2c
:0300f70001ffda2c
:0300f80001ffda2b
:0300f90001ffda2a
:0300fa0001ffd92a
:0300fb0001ffd929
:0300fc0001ffd928
:0300fd0001ffd828
:0300fe0001ffd827
:0300ff0001ffd826
:00000001FF
